:100000000C944E050C946B050C946B050C94EF2925
:100010000C946B050C946B050C946B050C946B05A0
:100020000C946B050C946B050C94C7100C94F31492
:100030000C94B4210C946B050C946B050C946B051B
:100040000C946B050C946B050C946B050C946B0570
:100050000C946B050C94A0110C946B050C946B051F
:100060000C946B050C946B050C946B050C946B0550
:100070000C946B050C946B050C946B050C946B0540
:100080000C946B050C946B050C946B050C946B0530
:100090000C946B050C946B050C946B050C946B0520
:1000A0000C946B050C946B050C946B05050109020F
:1000B000A10185020901A1000509190129081500FE
:1000C0002501950875018102050109300931158165
:1000D000257F95027508810609381581257F9501D0
:1000E00075088106050C0A38021581257F95017572
:1000F000088106C0C005010980A101850319012AF4
:10010000B700150126B700950175108100C0050CD8
:100110000901A101850419012AA002150126A002E6
:10012000950175108100C005010906A1018506052C
:100130000719E029E71500250195087501810205D9
:1001400007190029EF1500250195F07501810205B9
:10015000081901290595057501910295017503910D
:1001600001C00660FF0961A1010962150026FF00B8
:100170009520750881020963150026FF00952075FA
:10018000089102C005010906A101050719E029E748
:1001900015002501950875018102950175088101F9
:1001A0000507190029FF150026FF0095067508812F
:1001B000000508190129051500250195057501910E
:1001C00002950175039101C00000000000000000CD
:1001D000000000000000000000000000000000001F
:1001E0000000000000000000000000007E0F00D4AE
:1001F000FFFFFFC7000000780000000000000000C3
:100200002A2B280000000000000000000000000071
:1002100000000029000000002C1E3420212224347C
:100220002627252E362D3738271E1F20212223244E
:1002300025263333362E37381F0405060708090AEA
:100240000B0C0D0E0F101112131415161718191A86
:100250001B1C1D2F3130232D350405060708090A04
:100260000B0C0D0E0F101112131415161718191A66
:100270001B1C1D2F3130354C20202020616263640F
:1002800065666768696A6B6C6D6E6F7071727374A6
:1002900075767778797A3132333435363738393084
:1002A000524542545F2D3D5B5D5C233B27602C2E05
:1002B0002F20202000DA0281FFD9F1DB20A4A62E16
:1002C000AF00A0C0D30000A1C8D30000AED580A865
:1002D0001F408D142000556E6465660041646A7588
:1002E0007374005261697365004C6F7765720044E6
:1002F000656661756C74004C617965723A20003AEC
:10030000002C206B0078008081828384858687881A
:10031000898A8B8C8D8E8F9091929394A0A1A2A3A9
:10032000A4A5A6A7A8A9AAABACADAEAFB0B1B2B315
:10033000B4C0C1C2C3C4C5C6C7C8C9CACBCCCDCE60
:10034000CFD0D1D2D3D40000AF00AE2B0014001A0E
:100350000008001500170029000400160007000916
:10036000000A0062521D001B000600190005000073
:100370000000000000005791222C4163521300122C
:10038000000C0018001C00330233000F000E000D9B
:10039000000B000257380037003600100011000033
:1003A0000000000000015790322841210231002254
:1003B0000232001E0224022D002E0026022F002FE2
:1003C000022E022D0200002702300030023102000E
:1003D00000000000000000000000001F02000052AA
:1003E00018520034023400250200004F0051005022
:1003F000002A0038000000000051182C122C0000C8
:1004000000000000000000000000000000000042AA
:1004100000410040004300000000003F003E003D5E
:10042000004400625200003C003B003A00450000DE
:1004300000000000000057E1002C00000000002632
:1004400000250024000000000000002300220021FD
:100450000000000000000020001F001E000000003F
:100460000000000000270027002800000000000016
:1004700000DA000000000000000000DC00D900DB12
:10048000005001000000000000000000000000001B
:10049000000000000000000000D2006352000000D5
:1004A00000CD000000000000000000D000CE00CF12
:1004B000004F110000000000000000DA00D9000029
:1004C000000000000000000000D10009025B0003F2
:1004D0000100A0FA09040000010301010009211133
:1004E00001000122440007058103080001090401FD
:1004F000000203000000092111010001222200076F
:1005000005820320000107050303200001090402FE
:1005100000010300000009211101000122B60007BB
:100520000584032000011201000200000008534668
:1005300001000100010200010C0343006F00720082
:100540006E0065000000100366006F006F0073000E
:10055000740061006E000000040309040000000044
:1005600000003E5B4F5B3E003E6B4F6B3E001C3E0F
:100570007C3E1C00183C7E3C18001C577D571C001C
:100580001C5E7F5E1C0000183C180000FFE7C3E7FC
:10059000FF00001824180000FFE7DBE7FF003048E9
:1005A0003A060E00262979292600407F0505070016
:1005B000407F05253F005A3CE73C5A007F3E1C1C0B
:1005C0000800081C1C3E7F0014227F2214005F5F7D
:1005D000005F5F0006097F017F00006689956A0061
:1005E00060606060600094A2FFA2940008047E0432
:1005F000080010207E20100008082A1C0800081C93
:100600002A0808001E10101010000C1E0C1E0C00F2
:1006100030383E383000060E3E0E06000000000066
:10062000000000005F000000000700070000147FCA
:10063000147F1400242A7F2A120023130864620006
:10064000364956205000000807030000001C2241D4
:1006500000000041221C00002A1C7F1C2A00080800
:100660003E080800008070300000080808080800F4
:100670000000606000002010080402003E5149455F
:100680003E0000427F400000724949494600214136
:10069000494D33001814127F100027454545390095
:1006A0003C4A49493100412111090700364949496D
:1006B0003600464949291E00000014000000004091
:1006C0003400000000081422410014141414140013
:1006D0000041221408000201590906003E415D59FB
:1006E0004E007C1211127C007F49494936003E4180
:1006F000414122007F4141413E007F49494941003B
:100700007F09090901003E41415173007F08080833
:100710007F0000417F4100002040413F01007F08F1
:10072000142241007F40404040007F021C027F00B5
:100730007F0408107F003E4141413E007F090909C6
:1007400006003E4151215E007F09192946002649D5
:100750004949320003017F0103003F4040403F0010
:100760001F2040201F003F4038403F006314081402
:1007700063000304780403006159494D4300007F7E
:1007800041414100020408102000004141417F0026
:1007900004020102040040404040400000030708FA
:1007A00000002054547840007F28444438003844E6
:1007B00044442800384444287F00385454541800D6
:1007C00000087E0902001824241C78007F08040415
:1007D000780000447D4000002040403D00007F1034
:1007E0002844000000417F4000007C047804780029
:1007F0007C08040478003844444438007C182424DD
:100800001800182424187C007C08040408004854AC
:100810005454240004043F4424003C4040207C0005
:100820001C2040201C003C4030403C004428102844
:1008300044004C9090907C004464544C4400000868
:10084000364100000000770000000041360800003B
:100850000201020402003C2623263C0000000000A6
:10086000000000000000000000000000C0E0F0F800
:10087000F81800C0F0FCFEFFFFFFFFFFFFFF7E0047
:10088000000000000000000080C0E0E0E0E0E0E0E8
:10089000E0E0C0800000000080C0E0E0E0E0E0E0D8
:1008A000E0E0C080000000E0E0C0C0E0E0E0E00088
:1008B00000E0E0C0C0E0E0E0E0E0C0800000000058
:1008C00080C0E0E0E0E0E0E0E0E0C08000000000A8
:1008D00000000000000000000000E0F0F0F0E0EC9C
:1008E000EEF7F37020007C7C7C7E007E7E7E7F7F36
:1008F0007F000080C0E07E5B4F5BFEC00000C00058
:10090000DCD7DEDEDED7DC00C00000000000000027
:1009100000000000000000000000000000000000D7
:100920000000000000F8FCFEFFE000FFFFFFFFFFFB
:10093000FF80FFFFFFFFFFFFFFFFFF1F070100001A
:1009400000000000000000FFFFFF81000000000029
:100950000081C3C3C30000FFFFFF8100000000004F
:100960000081FFFFFF0000FFFFFF0100000000000B
:1009700000FFFFFF010000000001FFFFFF0000FF7C
:10098000FFFF9D1C1C1C1C1C1C9DDFDFDF000000EA
:10099000000000000000000000000F1F3F7F7F7F6D
:1009A0007F7F3F1E0C001F1F1F3F003F3F3F7F7F89
:1009B0007F00307B7F7830202030787F3B00030041
:1009C0000F7F0F0F0F7F0F000300000000000000DB
:1009D0000000000000000000000000000000000017
:1009E0000000000000030F1F3F3F3F3F1F1F3F3F1E
:1009F0007F7F7F3F3F1F3F7F7F7F7F7C7878381CE2
:100A00000F000000000000000103070707070707A9
:100A10000707030100000000010307070707070796
:100A2000070703010000000707070000000000009F
:100A3000000707070000000000000707070000008C
:100A40000103070707070707070703010000000066
:100A50000000000000000000000000000000000096
:100A60000000000000000000000000000000000086
:100A70000000000000000000000000000000000076
:100A80000000000000000000000000000000000066
:100A900000000000000000000000000011241FBE44
:100AA000CFEFDAE0DEBFCDBF11E0A0E0B1E0E4EDD2
:100AB000F8E502C005900D92A43CB107D9F725E0F6
:100AC000A4ECB1E001C01D92A433B207E1F70E948B
:100AD000DB210C94162C0C940000482F2091280345
:100AE0009091EF0257E0291302C080E0089530E0B2
:100AF000529FF001539FF00D1124E051FD4F818171
:100B0000681306C08081481303C085818111EECF30
:100B10002F5F3F4F2770E7CFFC01AC014C5F5F4F69
:100B20008FEF91E32191822728E030E087FF09C011
:100B3000880F892721503109C9F7E417F50791F784
:100B40000895880FF7CFE8EDF0E080818E7F8083F5
:100B50001092E2001092DA001092E100A0EEB0E0F4
:100B60008C9181608C9380818F77808319BCA7EDF5
:100B7000B0E08C918E7F8C9380818F7E80831092E9
:100B8000C00208952091E4003091E50095E6A901A6
:100B90002091EC00822F817020FF06C08091E80038
:100BA00080FF06C080E008952091E80022FD1AC071
:100BB0008091E502882389F0853089F08091EB00EF
:100BC00085FD0FC02091E4003091E50042175307E6
:100BD000F9F29150E1F684E0089582E0089583E00F
:100BE000089581E008958091E70287FF13C0809106
:100BF000E80082FF06C08091E8008B778093E800D0
:100C000004C08091E5028111F2CF08958091E50240
:100C10008823D9F38091E80080FFF8CF8091E80025
:100C20008E77ECCF982F9093E900242F762F50E009
:100C3000891731F07091EC002091ED005091F00097
:100C400021FD07C09F5F973071F78093E90081E035
:100C500008953091EB003E7F3093EB003091ED0032
:100C60003D7F3093ED003091EB0031603093EB002D
:100C70007093EC002093ED005093F0002091EE0073
:100C800027FDE0CF80E00895B0E0A0E0EAE4F6E0E0
:100C90000C94292BC8EDD0E088818F7E8883E7ED06
:100CA000F0E080818160808384E082BF81E0809376
:100CB000C00288818E7F888302EE10E0F8011082E6
:100CC0001092DA0081EEC82ED12CF60110828881B4
:100CD0008F77888388818068888388818F7D8883E7
:100CE00019BC1092E5021092E6021092E4021092F2
:100CF000E30290EEE92EF12CF70180818B7F808357
:100D000088818160888342E060E080E00E94120672
:100D1000F60180818E7F8083F801808181608083ED
:100D2000808188608083F70180818E7F80838881C5
:100D300080618883CDB7DEB7E8E00C94452BFC01D9
:100D40008091ED029091EE0286179707A0F0611551
:100D5000710529F49091E8009E779093E80090E067
:100D60006115710551F4911108C08091E80082FF6E
:100D700034C080E00895BC01F2CF8091E502882361
:100D8000C1F18530C1F18091E80083FD30C08091D0
:100D9000E80082FDEACF8091E80080FFE1CF8091FA
:100DA000F3002091F200382F6115710519F02830F9
:100DB000310558F091E02830310509F090E020919C
:100DC000E8002E772093E800CBCF81918093F1004B
:100DD000615071092F5F3F4FE7CF8091E502882373
:100DE00041F0853041F08091E80083FFBECF81E083
:100DF000089582E0089583E008958091C2020895E5
:100E000087E797E7909301088093000888E19AE0CC
:100E10000FB6F894A895809360000FBE9093600081
:100E2000FFCF2FB7F8946091BA027091BB02809106
:100E3000BC029091BD022FBF08952091670122232B
:100E4000C9F02091BE0227FF15C0E62FE695E69572
:100E5000E695EE31D8F4E80FF92FF11D677021E027
:100E600030E001C0220F6A95EAF72095828128239D
:100E700022830895FC01329608962191621303C0E3
:100E8000DF0111971C92E817F907B9F7089520912F
:100E900067012223C1F02091BE0227FF14C0E62F74
:100EA000E695E695E695EE31F8F4E80FF92FF11D99
:100EB000677021E030E001C0220F6A95EAF7828175
:100EC000822B82830895FC0132962FEF30E041910E
:100ED000641751F02F3F19F4411101C0232F3F5FD8
:100EE0003630A9F72F3F09F40895820F911D27FD91
:100EF0009A95FC0162830895A3E0B0E0E2E8F7E090
:100F00000C942F2B2091B7023091B8022817390783
:100F1000A1F09093B8028093B702E091B502F091EE
:100F2000B602309751F024E029839B838A830680A0
:100F3000F781E02DCE01019609952396E2E00C940D
:100F40004B2BA3E0B0E0E7EAF7E00C942F2B2091C5
:100F5000B3023091B40228173907A1F09093B4027C
:100F60008093B302E091B502F091B602309751F050
:100F700023E029839B838A830680F781E02DCE01BD
:100F8000019609952396E2E00C944B2B41155105EF
:100F900011F0FA010995089580919B0280FD16C019
:100FA00081FD16C082FD16C080919A028823A1F0AF
:100FB000883280F428E0829FC001112468E270E04A
:100FC0000E94622B862F672B39F0089582E00895E6
:100FD00084E0089588E0089581E0089580919B025F
:100FE00080FD14C081FD14C082FD16C0809199025D
:100FF000882381F08E3180F420E5829FC001112486
:101000006EE170E00E94622B862F089584E10895BE
:1010100088E2089588E0089580E50895282F35EB4B
:101020002303C001112497FF04C080589109892F20
:10103000089580589F4FFBCF80E00895F894E82FE3
:10104000E295EF70F0E031A1282F2F7081E090E061
:1010500001C0880F2A95EAF7982F9095932391A3C2
:1010600092A1892B82A3789408959091BE0292FF59
:1010700010C041E0282F2471243009F040E031E015
:10108000282F2871283009F030E0431711F02CE0A8
:10109000822793FF10C041E0282F2471243109F0EA
:1010A00040E031E0282F2871283109F030E0431763
:1010B00011F02CE082273091BF0230FF10C051E0C8
:1010C000282F2171213009F050E041E0282F2871AC
:1010D000283009F040E0541711F029E0822731FF51
:1010E00010C041E0282F2171213109F040E031E0AA
:1010F000282F2871283109F030E0431711F029E03A
:10110000822794FD877E089582389105B9F1B0F465
:101110008133910509F47DC048F48932910509F4C1
:101120006DC08A32910509F47BC00895853391051D
:1011300009F45FC08933910509F10895833E910553
:10114000D9F138F4803E910529F1823E910579F17B
:101150000895863E9105D9F1873E910509F43EC078
:10116000843E910541F52091BF0221FF24C080916A
:10117000BE0284FD19C087EE90E008952091BE0262
:10118000237009F05AC02091BF0223FF14C089E2E6
:1011900090E008952091BE0220FD38C03091BF023A
:1011A00030FF09C024FF43C090E080E00895209103
:1011B000BE0222FDF7CF08952091BE0222FD3AC063
:1011C0003091BF0230FD39C024FFF5CFEDCF209123
:1011D000BE0223FFF0CF24FDE7CFCDCF2091BE028A
:1011E00023FD2EC03091BF0231FFEECF84EE90E0A0
:1011F00008952091BE0225FFDECFC9CF2091BE0207
:1012000025FD21C02091BF0223FFD5CF89E390E0C7
:10121000D2CF2091BE0226FFCECF8AE290E0089581
:101220002091BE0226FFC7CF81E390E0089583EEB0
:1012300090E0089582EE90E0089580EE90E00895A9
:1012400086EE90E0089585E390E008951F93CF9394
:10125000DF930E948408EC01C11580E5D807F0F502
:10126000C11580E4D80708F09CC0C03ED10520F528
:10127000CD3CD10508F082C0C83AD10578F4C53A12
:10128000D10508F073C0C130D10519F1209709F1DB
:10129000C430D105F0F4D0E0C0E01BC0C33CD105A0
:1012A000D0F7C85AD0E0CC0FDD1FC559DE4F0990EA
:1012B000D881C02DD4640DC0C11580E2D80708F0D4
:1012C000D1C0C11581E0D80708F05AC0C83ED10589
:1012D00010F7CE01DF91CF911F910895C03682E5BE
:1012E000D80718F5C03482E5D80708F06BC0C032C3
:1012F00082E5D80708F05FC0C11582E5D80708F479
:1013000097C02C2F2695269580E2289F90011124C6
:101310008C2F8370C1E0D0E002C0CC0FDD1F8A9516
:10132000E2F7C22BD32BDD68D4CFC03A82E5D807D1
:1013300060F4C03882E5D80708F459C0CF71D0E016
:10134000DC2FCC27C46FD06AC4CFC03C82E5D8075D
:1013500008F462C0C03E82E5D80708F09CCFDC2FBD
:10136000CC27CC27DF71C06FD06AB3CFC55AD0E08D
:10137000C859DE4FC881D0E0D064ABCFD065A9CFCB
:101380008D2F0E943508182FCE0199270E948408BE
:10139000C12FD0E0DC2FCC27CC27DF71C82BD92B75
:1013A00098CFCE0199270E948408CC27DF70C82BE4
:1013B000D92BD06A8ECFCF71D0E0DC2FCC27C16F74
:1013C000D06A87CF2C2F26952695277080E2289FFC
:1013D000900111248C2F8370C1E0D0E002C0CC0FAB
:1013E000DD1F8A95E2F7C22BD32BDC6872CF2C2F3E
:1013F00026952695277080E2289F900111248C2F36
:101400008370C1E0D0E002C0CC0FDD1F8A95E2F707
:10141000C22BD32BDA685DCF8C2F8F710E943508D9
:10142000C82FD0E0DC2FCC27CC27DF71D06251CF82
:101430008C2F8F710E94350855E0D695C7955A9527
:10144000E1F7CF70D0E0DC2FCC27282F30E084FFED
:1014500005C044E0220F331F4A95E1F7C22BD32B7E
:10146000D06937CF8D2F8F710E943508182FCE018C
:1014700099270E948408C12FD0E0DC2FCC27CC27ED
:10148000DF71C82BD92BD2CF80959091AF029823D2
:101490009093AF02089580959091B0029823909315
:1014A000B0020895809128039091EF02981301C033
:1014B00008958F5F8770FACF292F983078F586309E
:1014C00068F590E036E0239F800D911D1124682F70
:1014D000677023E0969587952A95E1F7FC01EE0F5A
:1014E000FF1FE80FF91FE851FE4F50E040E080E099
:1014F000219130E0062E02C0369527950A94E2F736
:1015000021703327042E01C0220F0A94EAF7822BA0
:101510004F5F5F4F4330510559F7089580E00895BC
:10152000292F983098F5863088F590E036E0239F93
:10153000800D911D1124282F277041E001C0440F18
:101540002A95EAF723E0969587952A95E1F7FC011D
:10155000EE0FFF1FE80FF91FE851FE4F30E020E0CB
:1015600070E05191DF011197CB01022E02C09695D8
:1015700087950A94E2F781708195852784238527D2
:101580008C932F5F3F4F2330310559F70895809397
:10159000600208959091600221E030E0F90101C0FD
:1015A000EE0F8A95EAF7D90102C0AA0FBB1F6A9510
:1015B000E2F7EA2B01C0220F4A95EAF7892F8E2322
:1015C000E81305C0292B822F0E94C70A0895209591
:1015D0002923F9CF21E030E001C0220F8A95EAF7F4
:1015E00020958091600282230E94C70A08959091FD
:1015F00001028095892380930102282F277069F4C6
:10160000891759F09091BF0292FF07C08695869581
:1016100086950E94EA0A10920102089521E030E0C6
:1016200001C0220F8A95EAF780916002822B0E9406
:10163000C70A0895809354020895982F92959F7039
:1016400011F0892F94E0282F2695269511F09E5FA2
:10165000822F869509F09F5F892F08959C013A9506
:1016600021153F4150F5FC01EE27F170BC016627C2
:101670007270AC01442754709C012227387094FF8B
:101680000EC080E1EF2B09F480E0672B09F0806247
:10169000452B09F08064232B89F08068089581E050
:1016A000EF2B09F480E0672B09F08260452B09F0ED
:1016B0008460232B19F08860089580E00895CF930B
:1016C000DF93682F81E06A3019F06D3031F480E0EB
:1016D0000E94ED0BDF91CF9108958091320590919A
:1016E000330526E0FC01ACE2B5E001900D922A95AD
:1016F000E1F7603E08F458C026E0FC0111922A95FB
:10170000E9F7C0913205D091330546E050E0BE01C3
:101710008CE295E00E94AE2B9E012C523340892B27
:1017200041F1C90145E0969587954A95E1F741E079
:1017300050E0BA0102C0660F771F8A95E2F7CB012D
:1017400060912A0370912B03862B972BB9016B5F55
:101750007F4FE5E076956795EA95E1F702C0440F83
:10176000551F6A95E2F7842B952B90932B0380935A
:101770002A032A5F3F4F40912903642F70E0C9017B
:101780000E940B2B481B463010F4240F311D2115ED
:1017900072E0370710F030E020E0245D3C4F3093DA
:1017A00033052093320596CFF6E06F9FB0011124E8
:1017B000645A7A4F46E050E00E94A52BA2CFCF9307
:1017C000DF93EC01FE018491811103C0DF91CF9181
:1017D00008950E945F0B2196F5CFCF93382FE091AB
:1017E0003205F0913305EC52F34020912903622F2A
:1017F00070E0CF010E940B2B281B822F332361F056
:1018000066E00E94562BC82FC15010F4CF91089566
:1018100080E20E945F0BF8CF9F01280F311D211538
:10182000324018F080E0F0E0E0E08E0F9F2F911D35
:10183000845D9C4F9093330580933205E7CF0E94DF
:10184000DF0B81E00E94ED0B08958091B002909132
:10185000AF02892B8093C601909122029923A1F0B7
:10186000892B8093C601809167018823E1F18091E3
:10187000BE0287FF38C08EE1E8ECF1E090E08150D5
:10188000A0F591111092220240E250E062E072E075
:1018900086EC91E00E94AE2B892B21F180E2E6ECF0
:1018A000F1E0A2E0B2E001900D928A95E1F7E091BB
:1018B000B502F091B6023097A9F0809167018823B4
:1018C00059F08091BE0287FF07C08091C6018093C6
:1018D000C70186E08093C6010280F381E02D86EC8B
:1018E00091E00995089586E0C7CF2191222339F22E
:1018F0009F5FC5CFCF93DF93EC014A855B856E85F3
:101900007F850E94C6078B810E94440A8C810E94B9
:101910004B0A0E94250C86E0FE0111928A95E9F798
:10192000DF91CF910895CF93DF93EC018D8181FDFD
:1019300017C082608D838091AF029B81892B809339
:10194000AF028091B0029C81892B8093B0020E94EB
:10195000250C488559856E857F85CE010E94C60776
:101960001092B2021092B1028D8180FD03C0CE01AF
:101970000E947A0CDF91CF910895882321F00E9474
:10198000440A0E94250C0895882339F09091AF02F3
:10199000982B9093AF020E94250C0895882321F084
:1019A0000E944B0A0E94250C0895882339F09091DB
:1019B000B002982B9093B0020E94250C08950F93CB
:1019C0001F93CF93DF938B01EA019091E50294304E
:1019D00061F58093E9008FEF9091E800815095FDCB
:1019E00006C095ED9A95F1F700008111F5CF809131
:1019F000E80085FF1AC00E94C205811111C08091C4
:101A0000E80085FD06C08091E8008E778093E800AD
:101A1000F2CFF80181918F018093F100219779F73E
:101A20008091E8008E778093E800DF91CF911F913D
:101A30000F91089543E050E0BC0184E00E94DF0C68
:101A4000089546E050E0BC0184E00E94DF0C089558
:101A5000CF93DF93EC0180916701811111C048E0C1
:101A600050E0BE0181E00E94DF0C80E2FE01A3ECA9
:101A7000B2E001900D928A95E1F7DF91CF91089540
:101A80008091BE0287FF05C040E284E050E0BE01C5
:101A9000EACF48E081E0FACFB0E0A0E0E2E5FDE087
:101AA0000C94272B7C015B016A018091450201E0C7
:101AB00010E08A3010F40AE010E0C1E0D0E0B50197
:101AC000C701F6010995811104C021960C171D0765
:101AD0002CF4CDB7DEB7EAE00C94432BCC9F9001F9
:101AE000CD9F300D300D112490E080E045E34A9504
:101AF000F1F70000019682179307C1F7E0CF8091BC
:101B00002F02811110C08091D80080618093D8008D
:101B10008AE18A95F1F700C08091D90080FF0AC060
:101B200081E080932F0281E090912F02913009F0A3
:101B300080E0089582E080932F020E94A305109216
:101B4000E502F1CF0E947F0D882359F0E091B502A4
:101B5000F091B602309729F00190F081E02D0995BF
:101B6000089580E008950F931F930E947F0D8823AE
:101B700029F00E9411071F910F9108950E941107EB
:101B8000009146021091470220914802309149028B
:101B9000600F711F821F931FEECFCF93DF93C9EAAF
:101BA000D1E060E0CE010E94E22B2196C11584E0D5
:101BB000D807B9F7DF91CF9108951F93CF93DF93A3
:101BC000122F8430E0F46830D0F44630C0F4C42FD3
:101BD000D0E0CC0FDD1F9CE0699FC00DD11D11240A
:101BE00090E6899FC00DD11D1124632FCE018996E7
:101BF0000E94E22B612FCE018A960E94E22BDF9198
:101C0000CF911F910895AF92BF92CF92DF92EF9242
:101C1000FF921F93CF93DF938BE4C82E83E0D82EDF
:101C2000D0E07601C0E014C0F50125913491412F38
:101C30006C2F8D2F0E94DD0D82E0A80EB11C1F5F5E
:101C4000163091F78CE0E80EF11CCF5FC83019F028
:101C5000570110E0E9CFDF5F80E6C80ED11CD43019
:101C600001F7DF91CF911F91FF90EF90DF90CF9020
:101C7000BF90AF900895CF93C82F6FEF811163E2AB
:101C800085E290E00E94E22B6FEFC11161E186E2F4
:101C900090E00E94E22B6FEFC11162E187E290E0D9
:101CA0000E94E22BCF91089580E00E943B0E60E0FD
:101CB00088E290E00E94E22B0E94030E0E94CD0D6C
:101CC00081E00E943B0E08950F931F93CF93DF9303
:101CD000843030F5683020F5463010F5C42FD0E060
:101CE000CC0FDD1F2CE0629FC00DD11D112430E60A
:101CF000839FC00DD11D1124CE0189960E94C42B53
:101D0000082F10E0102F0027CE018A960E94C42BC6
:101D10009801282BC901DF91CF911F910F91089550
:101D200090E080E0F8CF462F783040F4663030F411
:101D3000843020F4672F0E94640E089590E080E0C4
:101D40000895CF92DF92FF920F931F93CF93DF936B
:101D50006C010091600280915402082BC3E0D0E036
:101D600010E0FC2EC8010C2E02C0959587950A94B0
:101D7000E2F780FD0CC02197A0F7F12C8F2DDF91A9
:101D8000CF911F910F91FF90DF90CF900895B601F2
:101D90008C2F0E94930E0E942609019761F3EECFCB
:101DA000CF93DF93EC010E94A10EBE010E94930E1F
:101DB0000E942609DF91CF910895FC0124812223FE
:101DC000C1F0808191810E94D00E92959F709630D3
:101DD00091F058F4925F9F70923058F4803F19F060
:101DE00030F4883E30F481E008959A5FF4CF843F68
:101DF000D1F380E00895883EB0F3813FD1F7F3CF6F
:101E0000A6E0B0E0E6E0FFE00C942E2B26E0FC011B
:101E1000DE01119601900D922A95E1F7FC012581D2
:101E200089819A81222399F0662389F00E94A10E6C
:101E3000182F682F89819A810E94900A69817A817E
:101E4000812F0E94930E2696E3E00C944A2B0E9469
:101E50005C0A182FF3CF85E290E00E94C42B8332F6
:101E600089F486E290E00E94C42B813159F487E224
:101E700090E00E94C42B91E0823109F090E0892F1C
:101E80008170089580E0FCCFB0E0A0E0EAE4FFE0DC
:101E90000C94292B6C017B0164E670E088E70E94BA
:101EA00069288C01E601EC0CFD1C17FD0BC0FE013E
:101EB000849164E670E00E94D5288C012196CE15AD
:101EC000DF0599F70E944B2981E00115110509F002
:101ED00080E0CDB7DEB7E8E00C94452B8091AA02F4
:101EE0009091AB02911103C091E089270895882356
:101EF00069F062E070E089E493E00E94440F811190
:101F000003C08091AA0208951092AA028091AA02A9
:101F1000EBCFCF93C091AA028091AB028823D1F07E
:101F20000E941107605A75418F4F9F4F6093A60220
:101F30007093A7028093A8029093A902C11108C0D0
:101F400062E070E087E493E00E94440F811105C0D5
:101F5000C091AA028C2FCF91089581E08093AA02AC
:101F6000F7CF9091BF0292FB222720F9281779F032
:101F700080FB92F99093BF026091BE027091BF0204
:101F800084E090E00E94002C82E00E94F70A08950D
:101F9000A4E0B0E0EEECFFE00C942E2B4091410267
:101FA0005091420260914302709144022FB7F8941D
:101FB0008091BA029091BB02A091BC02B091BD0287
:101FC0002FBF841B950BA60BB70B11E08436910530
:101FD000A105B10570F10E94B30D6E5F7F4F8F4F69
:101FE0009F4F69837A838B839C8380911D0190919D
:101FF0001E01885C9D4F40911C0150E04530510509
:1020000010F044E050E0BE016F5F7F4F0E94BB2B99
:1020100082E090E00E94952A182F882351F00E94B8
:1020200011076093410270934202809343029093A0
:102030004402812F2496E3E00C944A2BEF92FF9206
:102040001F93CF93DF9300D000D00F92CDB7DEB7B0
:102050007B0190E080E00E94952A182F882309F4E4
:1020600087C040910F0150E04115510511F041E04A
:1020700050E06091100170911101685C7D4FCE01BC
:1020800005960E94BB2B409134025091350260911D
:102090003602709137022FB7F8948091BA0290916E
:1020A000BB02A091BC02B091BD022FBF841B950B57
:1020B000A60BB70B84369105A105B10540F489E361
:1020C00092E00E948C059D81891709F451C081E03E
:1020D00090E00E94952A81111AC010E08091300290
:1020E00090913102A0913202B0913302F7018083C6
:1020F0009183A283B383812F0F900F900F900F9045
:102100000F90DF91CF911F91FF90EF900895409134
:10211000170150E04530510510F044E050E0609167
:10212000180170911901685C7D4FCE0101960E94E3
:10213000BB2B89E392E00E948C059D818913CDCF52
:102140000E94110760933402709335028093360227
:102150009093370289819A81AB81BC818093300250
:1021600090933102A0933202B093330211E0B6CFC4
:102170008091390290913A02A0913B02B0913C02C9
:1021800089839A83AB83BC831111E4CFA7CF1F92BD
:102190000F920FB60F9211242F933F934F935F939B
:1021A0006F937F938F939F93AF93BF93EF93FF931F
:1021B0008091E10082FF09C08091E20082FF05C0AA
:1021C0008091E1008B7F8093E1008091DA0080FFB5
:1021D00024C08091D80080FF20C08091DA008E7FDB
:1021E0008093DA008091D90080FF9DC080E189BD95
:1021F00082E189BD09B400FEFDCF81E08093E50254
:102200008091C002811109C00E94A3050E9444066A
:102210008091E20084608093E2008091E10080FF81
:1022200017C08091E20080FF13C08091E2008E7F92
:102230008093E2008091E20080618093E2008091CF
:10224000D80080628093D80019BC85E08093E502B5
:102250008091E10084FF2BC08091E20084FF27C0C1
:1022600080E189BD82E189BD89B5982F917080FF99
:10227000FBCF8091D8008F7D8093D8008091E100C2
:102280008F7E8093E1008091E2008F7E8093E20058
:102290008091E20081608093E2008091E6028823D1
:1022A00009F447C084E08093E5028091E5028091C3
:1022B000E10083FF27C08091E20083FF23C080916B
:1022C000E100877F8093E10082E08093E502109235
:1022D000E6028091E1008E7F8093E1008091E20030
:1022E0008E7F8093E2008091E20080618093E20023
:1022F00042E060E080E00E9412068091F000886079
:102300008093F000FF91EF91BF91AF919F918F91DA
:102310007F916F915F914F913F912F910F900FBEE1
:102320000F901F90189519BC1092E5021092C002F0
:1023300074CF8091E30087FD93E09093E502B5CFE1
:1023400078941F921FB61F9211248F939F93AF937F
:10235000BF938091BA029091BB02A091BC02B09150
:10236000BD020196A11DB11D8093BA029093BB02DC
:10237000A093BC02B093BD02BF91AF919F918F918A
:102380001F901FBE1F9018959C014FB7F894809125
:10239000BA029091BB02A091BC02B091BD024FBFA6
:1023A000821B930B08952FB7F8948091BA029091F5
:1023B000BB02A091BC02B091BD022FBF08950E9444
:1023C000D3119C019091A2028091A302982B21F03D
:1023D00030939F0220939E029091A4028091A502C7
:1023E000982B21F030939D0220939C02E091B5023E
:1023F000F091B602309749F082E08093A002048009
:10240000F581E02D80EA92E0099508951092B002DE
:1024100080916701E8ECF1E0882329F18091BE0208
:1024200087FF21C08EE1DF011D928A95E9F790E0D8
:1024300080E00E94A10790E080E00E947C0710925B
:10244000AF020E94250C86E0E0EAF2E0DF011D9277
:102450008A95E9F71092990210929A0210929B02C3
:102460000E94DF11089586E0DECFAAE2B0E0EBE340
:10247000F2E10C942E2B87EE92E02091F100DC012A
:102480002D93CD01B2E08F3E9B07B9F78091E80212
:10249000833009F472C0B8F4813009F449C0823045
:1024A00009F4B3C08091E80083FF8BC28091E702FA
:1024B0009091E8029A3008F084C2E92FF0E0E85EDB
:1024C000F34D0C94982B8A3009F48EC08B3009F4AC
:1024D00071C0893039F78091E702813219F7809114
:1024E000EB029091EC02009711F00297D9F68091DF
:1024F000E800877F8093E8008091E80082FF38C081
:102500009091F3008091F200029731F48091F100F4
:10251000813011F0863021F48091F1008093C20265
:102520008091E8008B778093E8000E94F305BACF92
:102530008091E702813A09F0B5CF8091E800877F6A
:102540008093E8008091EB029091EC02892B61F47A
:1025500060E283EC92E070E00E949F068091E800C8
:102560008B778093E8009ECF60E090E080E0F3CF2F
:102570008091E5028111C0CF95CF8091E702813A29
:1025800009F090CF8091EB029091EC02892B09F039
:1025900089CF8091E800877F8093E8008091E800F0
:1025A00080FFFCCF809167018093F1008091E8006B
:1025B0008E77B9CF8091E702813209F073CF809195
:1025C000EB029091EC02892B09F06CCF8091E8002E
:1025D000877F8093E8000E94F3058091E902809351
:1025E00067010E9406125ECF8091E702813209F0F6
:1025F00059CF8091E800877F8093E8000E94F3051F
:102600008091EA028093C1024DCF8091E702813A26
:1026100009F048CF8091E800877F8093E80080919F
:10262000E80080FFFCCF8091C102BECF803899F0D6
:10263000823809F0C6C18091EB028F70873008F0B4
:10264000C0C18093E9008091EB0085FB882780F969
:102650001092E90006C08091E3029091E40291118A
:1026600082609091E800977F9093E8008093F1005A
:102670001092F1008091E8008E779FC1882309F4C1
:102680008DC1823009F09DC18091E902811190C114
:102690008091EB028F702FEF280F263008F091C148
:1026A0008093E9002091EB0020FF82C1933031F448
:1026B0008091EB0080628093EB007AC19091EB00F7
:1026C00090619093EB0021E030E001C0220F8A95E9
:1026D000EAF72093EA001092EA008091EB0088600C
:1026E000EACF81116EC11091E9021F778091E3005A
:1026F0008078812B8093E3008091E800877F80932E
:10270000E8000E94F3058091E80080FFFCCF8091F3
:10271000E30080688093E30082E0111183E08093FE
:10272000E5024FC18058823008F04BC12091E90288
:102730003091EA022C3DE3E03E07A1F583E08A8375
:102740008AE289834FB7F894DE01139620E03EE0D9
:1027500051E2E32FF0E050935700E49120FF03C0D3
:10276000E295EF703F5FEF708E2F90E0EA30C0F09F
:10277000C7968D939D932F5F243159F74FBF80915A
:10278000E800877F8093E8006AE270E0CE0101965E
:102790000E949F068091E8008B778093E80011C12A
:1027A000C096E7CF8091EB029091EC02432F552722
:1027B0004330510509F44AC078F54130510509F418
:1027C0007AC08BE590E0EBECF4E04230510509F083
:1027D000F8C02091E800277F2093E8002091ED02C7
:1027E0003091EE028217930708F49C0140E0211516
:1027F000310509F065C0411163C08091E80082FD98
:10280000C9CF8091E502882329F2853019F28091A1
:10281000E80083FFF2CFBECF4132510509F43CC03E
:102820004232510509F0CDC08330910508F0C9C08E
:10283000FC01EE0FFF1FE854FE4F0190F081E02DE8
:102840008B549E4FDC018C9190E01AC033272130CD
:102850003105D1F02115310561F02230310509F043
:10286000B0C0E8E3F5E0E4918E2F90E0E8E3F5E016
:1028700007C0E8E5F5E0E4918E2F90E0E8E5F5E0AB
:10288000009709F49EC0A5CFE6E4F5E0E4918E2F11
:1028900090E0E6E4F5E0F4CF8330910508F091C0D4
:1028A000880F991FFC01E254FE4F0190F081E02D4A
:1028B00089E090E08ECF82E190E0E6E2F5E089CF1A
:1028C0008091E502882309F465CF853009F462CF51
:1028D0008091E80083FD5ECF8091E80082FD8DCF7E
:1028E0008091E80080FF83CF9091F3008091F20007
:1028F0002115310519F08830910550F041E0089715
:1029000009F040E08091E8008E778093E8006FCF77
:1029100044914093F1003196215031090196E8CF5E
:10292000803809F04EC08091E800877F8093E800EE
:102930008091E6028093F1009DCE811142C01091FA
:10294000E9021230F0F58091E800877F8093E8007B
:102950001093E6020E94F305112311F084E005C0F4
:102960008091E30087FDFACF81E08093E50242E0A9
:1029700061EC81E00E94120642E261EC84E00E9478
:10298000120642E261EC82E00E94120642E260EC32
:1029900083E00E9412068091E50213C08091E90253
:1029A000813079F481E0933009F080E08093E40293
:1029B0001092E9008091E800877F8093E8000E94F0
:1029C000F3058091E80083FF0AC08091E800877FCB
:1029D0008093E8008091EB0080628093EB00AA96E0
:1029E000E3E00C944A2B1F920F920FB60F92112422
:1029F0002F933F934F935F936F937F938F939F9307
:102A0000AF93BF93CF93DF93EF93FF93D091E90000
:102A1000DF708091EC00C82FC17080FDC0E810927B
:102A2000E9008091F000877F8093F00078940E9405
:102A300035121092E9008091F00088608093F000D8
:102A4000CD2BCF70C093E900FF91EF91DF91CF9133
:102A5000BF91AF919F918F917F916F915F914F91B6
:102A60003F912F910F900FBE0F901F9018950E94CD
:102A700006122FEF84E39CE0215080409040E1F764
:102A800000C0000088E19AE00FB6F894A895809302
:102A900060000FBE90936000FFCF662309F45DC015
:102AA0008D3C41F40E94EE0781958093A3020E9421
:102AB000DF1108958E3C19F40E94EE07F6CF8F3C8B
:102AC00031F40E94EE0781958093A202F0CF803D01
:102AD00019F40E94EE07F8CF893D29F40E94CC0733
:102AE0008093A402E4CF8A3D21F40E94CC07819513
:102AF000F7CF8B3D31F40E94CC0781958093A502DE
:102B0000D6CF8C3D19F40E94CC07F8CF9FE2980FE6
:102B1000983070F4815D990B21E030E001C0220F04
:102B20008A95EAF78091A102822B8093A102BFCF00
:102B30008D3D31F480919B02816080939B02B7CFE1
:102B40008E3D21F480919B028260F7CF8F3D09F08A
:102B5000AECF80919B028460F0CF4091A2028D3C69
:102B600059F48091A30287FF0DC01092A302411176
:102B70000BC01092990208C08E3C81F48091A30290
:102B800018169CF3442381F08091A4029091A50231
:102B9000892B09F08CCF10929A0289CF8F3C49F48F
:102BA00047FFF0CF1092A2028091A3028111ECCFD7
:102BB000E0CF803D19F41416ACF3E4CF9091A40259
:102BC000893D29F41916F4F61092A402DBCF8A3D50
:102BD00019F497FFD7CFF8CF9091A5028B3D29F438
:102BE00097FFD0CF1092A502CDCF8C3D19F41916C6
:102BF000CCF3C8CF9FE2980F983090F4815D990B89
:102C000021E030E0B90102C0660F771F8A95E2F734
:102C1000CB0180959091A10289238093A102B2CF2C
:102C20008D3D31F480919B028E7F80939B02AACFD1
:102C30008E3D21F480919B028D7FF7CF8F3D09F06F
:102C4000A1CF80919B028B7FF0CF882399F19CEFDD
:102C5000980F913A40F4682F86EC91E00E941D078E
:102C60000E94250C089590E2980F983050F48770D8
:102C700091E001C0990F8A95EAF7892F0E944B0ACB
:102C8000EFCF9BE5980F933028F490E080E00E940E
:102C9000A107089598E5980F9B3128F490E080E013
:102CA0000E947C07089593E3980F933118F460E035
:102CB0000E944D150895CF93DF93EC010E942516D5
:102CC000CE010E942E0B9E01205E31092830310575
:102CD00010F0CD2B29F40E94CE0CDF91CF910895F6
:102CE0000E94BD0CFACFFC018281813031F4FB01DE
:102CF000808191810E945B1608958230E9F7FB0183
:102D000082819381F7CFCF93C82F8823D9F18CEF9D
:102D10008C0F813AC8F580916701882311F1809169
:102D2000BE0287FF1EC0EC2FE695E695E695F0E023
:102D3000EA53FE4F828190E04C2F477021E030E053
:102D400002C0220F331F4A95E2F782239323892B77
:102D500091F06C2F86EC91E00E941D070E94250CDB
:102D60000AC0E8ECF1E08EEC91E02191C21789F302
:102D70008E179F07D1F76C2F86EC91E00E944707D2
:102D80000E94250CCF91089580E28C0F883068F462
:102D9000C77021E030E001C0220FCA95EAF78091A8
:102DA000B002822B8093B002EBCFEBE5EC0FE33067
:102DB00040F4F0E0E859FE4F808190E00E94A107C6
:102DC000E1CFE8E5EC0FEB3150F4F0E0EE0FFF1F40
:102DD000E559FE4F808191810E947C07D3CF83E328
:102DE0008C0F833178F661E08C2F0E944D15CACF8D
:102DF0001F93CF93DF93182FD0E0C0E0893311F4F5
:102E0000C0E5D0E0812F0E948316209739F4812FEE
:102E10000E942516DF91CF911F9108958FE99FE0C1
:102E20000197F1F700C000002197EFCF0F931F9398
:102E3000CF93DF93C42FD22FFC0185818823A9F083
:102E40004093AE020E94D3119093AD028093AC02E6
:102E5000C77081E001C0880FCA95EAF70E94D50CBF
:102E6000DF91CF911F910F9108951091AE0214132D
:102E700032C08091AC029091AD020E94C4118C329C
:102E8000914048F5C0E2CD0F1D17B9F080E2810FE7
:102E9000883040F4177081E001C0880F1A95EAF776
:102EA0000E94CE0CC83048F481E09D2F977001C07D
:102EB000880F9A95EAF70E94D50C802F0E94F81689
:102EC000C83070F6D77081E001C0880FDA95EAF754
:102ED0000E94CE0CC5CFC77081E001C0880FCA9593
:102EE000EAF7F6CFCF93DF93EC010E942E0B9E0101
:102EF000205E31092830310510F0209741F40E94FE
:102F0000D50C8C2F0E948316DF91CF9108950E94DB
:102F1000C40CF7CFFB01808191810E947217089544
:102F2000CF93DF93EC018A81823041F4FB018281EF
:102F300093810E9472178D8182608D83DF91CF9182
:102F40000895ACE0B0E0E7EAF7E10C94242B8E01A1
:102F50000F5F1F4F88E0D8011D928A95E9F783EA39
:102F6000C82E81E0D82EF12CE12CAA24A394B12CF8
:102F70002DEA822E21E0922EF60181916F018F3F82
:102F800009F442C0F894E82FE295EF70F0E021A137
:102F90008F70A50102C0440F551F8A95E2F7CA0140
:102FA000922F982B91A392A18095892382A3789444
:102FB00000C0E7EAF1E0712C31E021912F3F09F4E4
:102FC0006BC0A22FA295AF70B0E090968C9190E06C
:102FD0002F7002C0959587952A95E2F780FD5CC019
:102FE000832F782A330F8E169F0639F7F601319713
:102FF00080818F3F11F00E941E0850EA5A95F1F728
:10300000F801EE0DFF1D70828FEFE81AF80AA4E0B8
:10301000EA16F10409F0B0CF48E050E0B8018AE4C4
:1030200092E00E94AE2B009741F028E0F801AAE45C
:10303000B2E001900D922A95E1F700915302892B9D
:1030400069F181E0809327020E94D31190932602B8
:103050008093250280912502909126020E94C4113E
:10306000059700F110E00F561D4F44E050E06AE470
:1030700072E0C8010E94AE2BB12C892B51F084E084
:10308000EAE4F2E0D80101900D928A95E1F7BB24C1
:10309000B3941092270207C080E0A3CF809127024B
:1030A0008111D8CFB12C0E947F0DF82EE0915302F0
:1030B000882309F472C019861A861B861C860E2F77
:1030C00010E00F561D4F809145028A3088F54EE181
:1030D00050E1BE01675F7F4FC8010E944C0D8823FD
:1030E00009F44AC048EC5FE0BE01675F7F4FC8014A
:1030F0000E944C0D882309F43FC010924502809134
:10310000520290E044E050E0BE01675F7F4F8F566F
:103110009D4F0E94AE2B21E020932E02892BF1F4CB
:10312000F12C1F2D812F8B292C96EDE00C94402B38
:1031300080912802909129020E94C411843F9140FD
:1031400030F680912E02882359F3FE01399684E0EF
:10315000DF011D928A95E9F710922E02E09152024A
:10316000F0E0EF56FD4F89859A85AB85BC8580835D
:103170009183A283B383D5CF809145028F3F31F0F5
:103180008F5F809345028A3008F4B9CF0E94D31133
:103190009093290280932802D4CFF0E0EF56FD4FA0
:1031A00084E0A9E3B2E001900D928A95E1F789E30A
:1031B00092E00E948C0580933802C0903D02D0902E
:1031C0003E02E0903F02F090400280912A029091EE
:1031D0002B02A0912C02B0912D02C816D906EA0646
:1031E000FB0611F410E09ECFC0922A02D0922B026F
:1031F000E0922C02F0922D020E947F0D182F811177
:10320000F1CF0E941107C61AD70AE80AF90AC0923C
:103210004602D0924702E0924802F092490282CFE1
:10322000A8E0B0E0E6E1F9E10C94212B7C01DC019F
:1032300014968C91882309F4D1C061E0C7010E94E3
:10324000000F8C01F7018581882319F18091B1026B
:103250009091B2020097E9F008171907D1F0992769
:1032600074E0880F991F7A95E1F7FC01EE5CFE4F40
:10327000208124602083835D9E4FDC010D931C938D
:103280000E94930C1092AF0261E0C7010E94000FF0
:103290008C01F7018581882309F460C198013757B3
:1032A0002038310508F02DC1003108F087C08FEFBC
:1032B00093E00E94C42B811181C069EAA62EBB2431
:1032C000B394011148C0FE01339686E0DF011D92E0
:1032D0008A95E9F75AE0452E85010F5F1F4FC5011A
:1032E0000E94C42B89831A82882309F467C0813025
:1032F00009F078C06501B2E0CB0ED11CC8010E9474
:10330000C42B8A83882309F459C09FEF980F933008
:1033100080F5E3E0AE0EB11CC6010E94C42B8B8386
:10332000882309F44BC01C828E010F5F1F4FD80108
:103330002C91222389F2213009F08EC011969C91A4
:10334000119712968C91913009F04EC00E5F1F4F6D
:103350000E94F8164FC0A114F4E0BF0679F1C50130
:103360000E94C42B811101C001502FEFA21AB20A92
:10337000A8CF56018430C1F602E010E05601FFEFFD
:10338000AF1ABF0AC6010E94C42BE1E0F0E0EC0FC7
:10339000FD1FE00FF11F8083882381F08C3741F4FB
:1033A000E2E0F0E0EC0FFD1FE00FF11F1082BCCF58
:1033B0000F5F1F4F65010730110501F78091010272
:1033C000877061F0D70115968C91882339F0809130
:1033D000BF0282FF03C082E00E94F70A2896E0E164
:1033E0000C943D2B5801A0CF923039F40E5F1F4F43
:1033F0000E9483160F5F1F4F9ACF933029F40E5F00
:103400001F4F0E942516F6CF943019F00F5F1F4F03
:10341000F1CF0E5F1F4F30E020E0B8016F5F7F4FAC
:10342000F80141818053990B8A30910550F0215069
:10343000310900F38FE99FE00197F1F700C0000028
:10344000F6CF429EF001439EF00D11249C012E0FF9
:103450003F1F842F8B01E1CFE22FF0E0E850FE4FB9
:103460005490822F86958695869590E0FC01E851D0
:10347000FE4F64902770712C022E02C075946794E1
:103480000A94E2F7A1E06A227724FC01E852FE4F99
:103490008490912C022E02C0959487940A94E2F7AE
:1034A000B1E08B229924FC01E853FE4FC490D12C4B
:1034B00002C0D594C7942A95E2F7E1E0CE22DD243C
:1034C0006114710419F081EE0E9483168114910435
:1034D00019F086EE0E948316852D0E94F81681143D
:1034E000910419F086EE0E9425166114710419F0FA
:1034F00081EE0E942516C114D10409F47BCF8CE221
:1035000027CF918190936B02908190936A0290E211
:1035100090935F0110936902009368029801305202
:103520002115304230F49681907F09F4B2C0F80141
:103530000CC0980130542115304108F079C0D701F2
:1035400016969C91907FF80109F0FF27ED33F10565
:1035500028F4E858FD4FE491E0935F019801375556
:103560002F3F310511F008F094C0F801FF2744E027
:10357000EE0FFF1F4A95E1F79F01235D3E4F690162
:10358000EE5CFE4F908180FB90F99083882309F4D4
:1035900061C00E94D31190935F0280935E02D601B6
:1035A00012968C9112978F5F12968C93129780913E
:1035B000AF029091B002892B13968C931397809150
:1035C000220214968C93149716964D915C9117973E
:1035D0001E966D917C91C6010E94C607F6018581F9
:1035E00081FF35C090E080E09093B1028093B202F9
:1035F000D70115968C91882309F4E4C31092AE028A
:10360000C8019057839708F0C7C384E090E00E94F8
:10361000CC2B9093BF028093BE02F801E150F0479B
:10362000E232F10508F06DC0EE5DF34D0C94982B7D
:1036300098013A9521153F4108F479CF9801205A15
:1036400032452032310508F489CFF8017FCF902F21
:10365000812FCACFD9011C964D915C911D971E9662
:103660006D917C91C9010E94C607F601858181FF99
:10367000BFCFC6010E947A0C8091B1029091B20234
:103680000817190709F0B4CF1092B2021092B102D4
:10369000AFCFF801E851FC47E730F10508F0A8CFBB
:1036A000EC5BF34D0C94982B06E221EE41EE6AE1BF
:1036B0007CE7C7010E94161781CE07E225EE45EE92
:1036C0006BE17CE7F6CF06E221EE40EE68E17CE7B5
:1036D000F0CF07E225EE44EE69E17CE7EACF06E2AF
:1036E00021EE42EE6CE17CE7E4CF07E225EE46EE08
:1036F0006DE17CE7DECF08E221E045EE6EE17CE79C
:10370000D8CF8091BE0281608093BE0295C0809127
:10371000BF0288608093BF028FC08091BE0282602A
:10372000F3CF8091BE028460EFCF8091BE028860AB
:10373000EBCF8091BF028160EDCF8091BF028260AC
:10374000E9CF8091BE028061DFCF8091BE028062AE
:10375000DBCF8091BE028064D7CF0E940612809199
:10376000BE028068D1CF8091BE028C60CDCF8091A7
:10377000BF028360CFCF8091BE028E7FC5CF809184
:10378000BF02877FC7CF8091BE028D7FBDCF809162
:10379000BE028B7FB9CF8091BE02877FB5CF80916B
:1037A000BF028E7FB7CF8091BF028D7FB3CF809154
:1037B000BE028F7EA9CF8091BE028F7DA5CF809162
:1037C000BE028F7BA1CF0E9406128091BE028F772E
:1037D0009BCF8091BE02837F97CF8091BF028C7F69
:1037E00099CF8091BE0282FB992790F921E0922720
:1037F00090FB82F990FB83F987CF8091BF02982FCD
:10380000909591708E7F892B90FB81F983CF909159
:10381000BE02892F8F7B96FF806476CF0E940612AE
:103820009091BE02892F97FB87F980586DCF61E098
:103830008EE090E00E94E22B6091BE027091BF0288
:1038400084E090E00E94002C0E940612B7CD60E058
:10385000EFCF9091BE02892F8F7E94FF806154CF6D
:103860009091BE02892F8E7F90FF81604DCF909105
:10387000BF02892F877F93FF88604CCF8091E6013C
:1038800069E2811165E386EC91E00E941D0797C211
:1038900081E00E940E0BA8C20330BCE71B0709F4AD
:1038A00077C008F05AC00115FCE71F0709F463C090
:1038B00001301C4709F472C0F70185810081118134
:1038C000882309F479C0C8010E94A10ED82E682F60
:1038D000C8010E94900AB8018D2D0E94930E0E948B
:1038E00026098C01882ED7011596AC90159716964F
:1038F0009C9092943FE09322809101028770F1F0B6
:10390000CA2CAA20E1F0812F807F803451F080E220
:10391000800F883098F0911004C0812F807E803213
:1039200069F08091BF0282FF09C082E00E94F70A1D
:10393000809101028770CC24C3948111C12CB12ED7
:10394000B2942FE0B222BBE0BB1508F496C0EB2D79
:10395000F0E0E55BF34D0C94982B0B353CE7130737
:1039600049F10C358CE71807D9F00A351C4709F0E6
:10397000A3CF81E01CC00E940612AFEFB4E3ECE0DD
:10398000A150B040E040E1F700C000000E940007F5
:103990006FEF7FEF90E080E00E94002C0E943715CF
:1039A0008091BF0282FB882780F991E089270E94DD
:1039B000B10F82CF80E0FBCFC8010E945C0AD82EF5
:1039C0008ACFE12FEF70DE2E107F19F0D29490EFA6
:1039D000D922AA20B9F0DD2069F080E2800F88307A
:1039E00010F0811009C08091B002D82AD092B002A4
:1039F0000E94250C802F3FC08091AF02D82AD09220
:103A0000AF02F6CF802F0E942516DD20B1F1005EB7
:103A10008D2D083010F0811003C00E944B0A02C0A7
:103A20000E94440A0E94250C28C0F12FFF70DF2E4F
:103A3000107F103219F0D29480EFD822882059F0EC
:103A400021E0821609F473C0AA2009F47FC09920EE
:103A500009F442C0CFCF8091BF0282FD39C0AA20B5
:103A600081F1DD2039F08091B002D82AD092B002E5
:103A70000E94250C80E00E948316EB2DE850FF0B7E
:103A8000349710F40E94A20DCC20B1F08091010275
:103A900080FD12C0D70115961C9286958695869555
:103AA0000E940E0BC7010E94101980910102869599
:103AB000869586950E94EA0A60E0C7010E94000F81
:103AC0008DCC80E00E942516DD20B9F28D2DA5CF8A
:103AD000AA2099F0911004C08D2D0E94D50CCDCF55
:103AE00031E09312CACF809122029D2D9823D916DE
:103AF00021F2D82AD0922202C0CF9110BECF8D2DB4
:103B00000E94CE0C909122028D2D892329F08D2DBB
:103B100080958923809322028091E7019D2D98232F
:103B200009F4ABCFD094D822D092E701A6CFAA2037
:103B300029F085E0891508F4A0CFCECF94E099153F
:103B400008F49BCF8D2D0E94CE0C97CF9920D1F3F6
:103B5000A9E38A1209C0BFEFE7EEF3E0B150E040FD
:103B6000F040E1F700C00000802F0E94251685CFAD
:103B7000812F86958695837061F0813009F07DCF25
:103B8000C8019370A11002C080E090E00E947C0701
:103B900074CFC8019370A11002C080E090E00E9431
:103BA000A1076BCF6A2D802F0E944D1566CF812F04
:103BB000837089F5A11061CF402F429546954770DB
:103BC000440F440F802F8F70042E01C0880F0A9479
:103BD000EAF7202F207104FF07C02FE030E001C07A
:103BE000220F4A95EAF72095169516951370123014
:103BF00069F050F430915402113029F0822B832364
:103C00000E941A0B3ACF832B822BFACF282B80915C
:103C100054028227F5CF8695AA2011F0812F81705A
:103C2000882309F42ACF402F429546954770440FC8
:103C3000440F802F8F70042E01C0880F0A94EAF77A
:103C4000202F207104FF07C02FE030E001C0220FB9
:103C50004A95EAF72095169516951370123069F07B
:103C600050F430916002113029F0822B83230E949E
:103C7000C70A03CF832B822BFACF282B80916002B7
:103C80008227F5CF1F70AA2029F0812F0E940E0BEA
:103C9000802F23CF802F0E94CE0C812F0E94EA0A12
:103CA000ECCE802F22EF8216B1F1281570F030EFA4
:103CB0008316D1F091EF891691F0AA2009F45CC027
:103CC000911098CE812F8F712AC0A3EF8A1651F1DF
:103CD000B4EF8B12F2CF8091BF0282FD2FC0812FF3
:103CE0008F71AA20D9F21BC0AA2081F0E4E0E91567
:103CF00008F4C3CE1F7181E090E0012E01C0880F4F
:103D00000A94EAF7909160028927B1CFF5E0F9159E
:103D100008F4B3CEEFCF812F8F71A110BFCF0E94D7
:103D20000E0BABCE80E0AA2009F4A1CF1F7181E079
:103D3000012E01C0880F0A94EAF799CFAA2089F0D2
:103D40001F71812F0E940E0B8091BF0282FF07C05E
:103D500028E0129FC0011124836080930102812F0B
:103D6000DECF81E00E94F70A31E0391508F085CEF8
:103D700082E00E94F70A81CE992059F0893309F038
:103D8000F3CE8FEF97EEA3E081509040A040E1F793
:103D9000E9CE812F8F7182CF0631BCE71B0751F529
:103DA0008091B0028A7A91E009F490E09093E60164
:103DB00069E2811165E386EC91E00E9447070E9469
:103DC000250CFCCA0631ECE71E0709F457CD81E04B
:103DD0000737FCE71F0731F082E008372CE71207AE
:103DE00009F06ACD0E94EA0A43E062E081E00E94A5
:103DF000CA0AE4CA07373CE7130709F449CD083774
:103E00008CE7180709F048CD82E043CDB0E0A0E090
:103E1000ECE0FFE10C942A2B80910002807F09F0F6
:103E200051C08091FF01882309F44CC0E091280320
:103E300087E0D82E8091EF028E1709F443C00E2F31
:103E400010E0ED9DF0011124E051FD4F84818823A5
:103E5000F1F1D09EE001D19ED00D1124FE01E05180
:103E6000FD4F91818091FB01981331C09081809129
:103E7000FA0198132CC08581811129C0E280F3805A
:103E80008091FC019091FD01E81AF90A60E08AEF47
:103E900091E00E94000F8CE2E81681E0F806B8F489
:103EA000809100028F70806180930002CA50DD4FC4
:103EB00088818F70806188838AEF91E00E94101959
:103EC0000E94520ACDB7DEB7E7E00C94462BF8010A
:103ED0003196E770AFCFA4E1B0E0E1E7FFE10C94E9
:103EE000222B8C0186E0F801DE011F9601900D92D5
:103EF0008A95E1F7F801F480E5808AEF882E81E069
:103F0000982E8091FE0181112AC0F11003C0FF2478
:103F1000F3941CC0EE20F9F0C8010E94DD0EF82ECB
:103F20008823C9F087E0F801AAEFB1E001900D9273
:103F30008A95E1F78091FE01813031F48091FA0198
:103F40009091FB010E94D00E0E94061F8F2D649657
:103F5000EFE00C943E2BC8010E941019D8CFC2800C
:103F6000D380B090FF018091FC019091FD0136015A
:103F7000681A790ABB2009F4F9C05080A18060E07A
:103F80008AEF91E00E94000FFCE26F16F1E07F06DD
:103F900008F0A5C0FF2009F4BACF80910002382FA5
:103FA000307F2091FB01F8019181311158C0FE2C26
:103FB000291314C02091FA01908129130FC0E11038
:103FC00047C08F708061809300028AEF91E00E9469
:103FD000101980910002F8018683B8CFE11038C033
:103FE0006A2D852D0E946D056A2D852D0E946D0517
:103FF000E82E8111ABCF5F86A88A8F8598890E94B1
:10400000D00E292F22952F70243058F49F70223023
:1040100088F0992399F0F8019681907F79F4FE2C2D
:1040200095CF2A5F2F70223068F0C8010E941019C6
:10403000EB2CF5CF992311F0882389F3805E88302B
:1040400070F3F3CF803F58F3815F833070F7E7CF91
:1040500080910002816080930002F12C77CF2913B8
:1040600015C02091FA019081291310C0E1100EC0F3
:104070008683C8010E94101987E0F801AAEFB1E019
:1040800001900D928A95E1F7FB2C60CFC8010E9448
:10409000DD0E882309F45FCFEE2009F45CCF809118
:1040A0000002803288F02091FA013091FB013987BB
:1040B0002887DB86CA869091FE019C871D868E87A5
:1040C000CE0108960E94101987E0F801AAEFB1E02E
:1040D00001900D928A95E1F70E94061F18CF8091FA
:1040E0000002982F907F51F48AEF91E00E941019FE
:1040F00087E0F40111928A95E9F7AFCFFF2009F428
:1041000006CF2091FB01F8019181291311C0209164
:10411000FA01908129130CC0E1100AC08683C801FE
:104120000E94101987E0F40111928A95E9F7ACCF4B
:10413000C8010E94DD0E882309F40DCFEE2009F49A
:104140000ACF80910002803208F4BECF2091FA019C
:104150003091FB013A832983DC82CB829091FE016E
:104160009D831E828F83CE010196ACCF60E08AEFE3
:1041700091E00E94000FFCE26F16F1E07F0608F06C
:10418000B7CFFF2009F4C3CEFE2CEE2009F4E3CE16
:104190009091FB01F801818198132EC09091FA0152
:1041A0008081981329C08091FC019091FD01C81A6B
:1041B000D90AFCE2CF16F1E0DF06A8F490910002E4
:1041C00090FD11C0907F79F080910002F801868304
:1041D000903F31F0982F907F905F8F70892B86836E
:1041E000C8010E94101987E0F801AAEFB1E0019020
:1041F0000D928A95E1F7AACEC8010E94DD0E8111C9
:1042000063CF80910002816080930002C8010E9408
:1042100010199CCEABE1B0E0E0E1F1E20C942E2B62
:104220004E8B5F8B688F798F8A8F9B8F9111109245
:10423000AF021D8A86E0FE017696DE011F96019090
:104240000D928A95E1F78B89882329F061E0CE01F0
:104250000F960E94000F87E0FE013F96DE01189640
:1042600001900D928A95E1F7CE0108960E946B1F8E
:1042700081110CC087E0FE013896DE011196019095
:104280000D928A95E1F78C8581110BC017E0809122
:1042900028039091EF02891331C06B96E3E00C94F0
:1042A0004A2B2091EF0230E0C901019687709927CF
:1042B000409128034817190699F097E0929FD00182
:1042C000939FB00D1124A051BD4FFE013196019076
:1042D0000D929A95E1F78093EF020E94520AD6CF91
:1042E0000E9406121092EF021092280387E0EAEF74
:1042F000F1E0DF011D928A95E9F7C8CF819FC001E7
:10430000112480519D4F0E946B1F882331F28091B0
:10431000280390E001968770992780932803B7CFF0
:10432000A6E0B0E0E6E9F1E20C942D2B0E94D31157
:104330008C0180912302909124028017910781F0D3
:1043400019821A820E94D311682F49815A81792FCC
:1043500080E090E00E940A2110932402009323023F
:104360002696E4E00C94492B1F921FB61F9211244D
:104370008F939F93AF93BF938091B902811113C024
:104380008091BA029091BB02A091BC02B091BD0293
:104390004196A11DB11D8093BA029093BB02A093D8
:1043A000BC02B093BD02BF91AF919F918F911F90BE
:1043B0001FBE1F901895CDB7DEB7A8970FB6F8941B
:1043C000DEBF0FBECDBF85B7806885BF85B780686B
:1043D00085BF84B7877F84BF0FB6F894A895809176
:1043E0006000886180936000109260000FBE80E8DA
:1043F00090E00FB6F89480936100909361000FBE37
:104400008CE198E09093C5018093C4010E94A305BC
:104410000E9444068091E20084608093E2007894D8
:104420008091E5028823A1F01091E9001F7090911E
:10443000EC00892F817090FD80E8182B1092E90024
:104440008091E80083FD0E9435121F701093E900EF
:1044500082E084BD93E095BD9AEF97BD80936E0096
:10446000109246021092470210924802109249029E
:104470000E942B0F811102C00E94540E0E947F0DDA
:10448000809324010E947F0D81110E94A9298091AF
:1044900024018091240194E0811190E090935302D3
:1044A00084E0891B8093520284E90E941E0886E6FC
:1044B0000E941E0887E90E941E0886EC0E941E08C2
:1044C00007EA11E0D8018D918D018F3F11F00E9414
:1044D0001E08B1E00D3A1B07A9F788E0E1E9F2E018
:1044E000DF01282F1D922A95E9F7EAE4F2E0DF01C7
:1044F0001D928A95E9F790E080E00E94CC2B863EE1
:104500009E4F21F40E942B0F811167C066EE7EEF53
:1045100090E080E00E94002C60E082E090E00E9449
:10452000E22B60E083E090E00E94E22B10925402C4
:1045300060E074E184E090E00E94002C60E086E09E
:1045400090E00E94E22B6FEF87E090E00E94E22B68
:1045500040E050E0BA0188E090E00E94F42B60E077
:1045600084E290E00E94E22B60E087E190E00E940C
:10457000E22B60E08CE090E00E94E22B60E08DE0B6
:1045800090E00E94E22B19821A821B821C821D82FB
:104590001E821F82188648E050E068E170E0CE017C
:1045A00001960E94D22B40E050E0BA0180E290E0F8
:1045B0000E94F42B80E00E943B0E0E94540E40E0CB
:1045C00050E0BA018FE090E00E94F42B40E050E010
:1045D000BA0183E190E00E94F42B82E090E00E9417
:1045E000C42B8093550284E090E00E94CC2B9093E2
:1045F000BF028093BE020E94A117EFEFF6E721E011
:10460000E150F0402040E1F700C000000E94A117F7
:104610000E947F0DE4E08111E0E0F0E0EF56FD4FF5
:10462000808181FF08C06FEF7FEF90E080E00E9403
:10463000002C0E94000783E090E00E94C42B0E949F
:104640001A0B0E947F0D8111B5C082E080938C020D
:1046500080E8809329030E9463286BE070E08BEC74
:1046600092E00E94440F8823E9F180918C0265E07A
:1046700070E081FDA1C086EC92E00E94440F882387
:1046800089F16DE070E084EB92E00E94440F882392
:1046900049F10E941107605A75418F4F9F4F6093F7
:1046A000A6027093A7028093A8029093A902ECE25D
:1046B000F3E080E092E0DF019C011D922150304048
:1046C000E1F7F0933305E09332058FEF9FEF90937E
:1046D0002B0380932A0381E08093AB028093AA028C
:1046E00010928D020E947F0D811102C00E94AC29A0
:1046F00085E291E09093B6028093B502EAE0CE2E77
:10470000D12CE12CF12C8091E50200E112E1853001
:1047100009F48FC00E94A11706E512E071E9A72EE7
:1047200072E0B72E2EE532E0D501F80191918D911E
:104730002E173F0709F487C09817C1F30E947F0D19
:10474000482E912C33243394D5018D905D01F801CE
:1047500051908F01581429F15824712C66246394C8
:10476000852D8621B1F04420A1F079A29AA20E9461
:10477000D3119CA38BA33DA291E0882D862109F43F
:1047800090E09EA349A15AA16BA17CA18DA10E949A
:104790000A217394660CF6E07F12E2CFF80131979C
:1047A0008082939428E09212CFCF0E94B30DBB2455
:1047B000B3944EC080E04ACF81EC92E05ECF80910E
:1047C000E502843031F10E946E0F1092B90288E147
:1047D00090E0A0E40FB6F894A895809360000FBE17
:1047E000A093600083B7817F846083BF83B78160BB
:1047F00083BF7894889583B78E7F83BF0FB6F89474
:10480000A89580916000886180936000109260009C
:104810000FBE8091E402882361F00E94A117E1E9B4
:10482000F2E08191811121C429E932E02E173F077E
:10483000C1F78091E502853009F4C1CF0E940612CC
:104840000E94A20D67CF981379CF0E949021B12CBE
:104850000E947F0D882309F10091B1021091B202EC
:1048600001151105D1F080915E0290915F020E94C6
:10487000C4118D32914088F0C801992764E0880FF7
:10488000991F6A95E1F7FC01EE5CFE4F208122FD45
:1048900004C0835D9E4F0E94930C8091AB028823DD
:1048A00009F491C080918E0290918F020E94C411F0
:1048B000C29708F468C00E94D31190938F0280932E
:1048C0008E028CE293E090933305809332050E9430
:1048D0007F0D882309F4C4C187EF92E00E94DF0BAB
:1048E000809160020E941D0B813009F475C18823FC
:1048F00049F0823009F473C1833009F473C186ED45
:1049000092E002C08FEE92E00E941F0C80916B0239
:10491000805D0E945F0B85E093E00E94DF0B809139
:104920006A02805D0E945F0B81E093E00E94DF0BD2
:10493000409068025090690280915D0190915E0103
:104940004816590609F051C180916702803209F07A
:104950004CC1E1E6F2E08F0181918032E1F3F80190
:1049600001900020E9F79F01215031094901081504
:10497000190508F46FC18FEF92E00E94DF0B809160
:104980005F010E945F0B80912A0390912B03892B7A
:1049900009F06BC18091AA028823A9F00E94110737
:1049A0000091A6021091A7022091A8023091A902BD
:1049B000601B710B820B930B6F3F7F4F8F4F9F4795
:1049C00010F40E946E0FB1100E94890F86E0E0EA99
:1049D000F2E0DE01119601900D928A95E1F7909038
:1049E000A1021091A202B090A302A090A402009193
:1049F000A5021092A2021092A3021092A402109299
:104A0000A502812F8B2909F445C080919E029091C7
:104A10009F020E94C4119C0190919902992309F46C
:104A20004DC325313105B0F19F3F19F09F5F909341
:104A30009902112359F00E94EE079FEF11160CF412
:104A400091E0899F802D11248093A202BB2059F010
:104A50000E94EE0791E01B140CF09FEF899F802DC0
:104A600011248093A3028091A202882399F0809060
:104A7000A302882079F00E940E08882309F4D1C18E
:104A80008093A202882D0E940E08882309F4CBC1CE
:104A90008093A3028A2D802B09F445C080919C024B
:104AA00090919D020E94C4119C0190919A029923B9
:104AB00009F4FFC221353105B0F19F3F19F09F5F26
:104AC00090939A02AA2059F00E94CC079FEF1A14E3
:104AD0000CF491E0899F802D11248093A40200237F
:104AE00059F00E94CC0791E010160CF09FEF899FBF
:104AF000802D11248093A5028091A402882399F02F
:104B0000A090A502AA2079F00E940E08882309F43B
:104B10008CC18093A4028A2D0E940E08882309F478
:104B200086C18093A5028091A102981217C080913E
:104B3000A202882311F0811311C02091A302222325
:104B400011F02B110BC09091A502992311F0901335
:104B500005C03091A402332309F49DC20E94DF11E5
:104B600086E0FE013196A0EAB2E001900D928A95AE
:104B7000E1F70E94A20D90919002891721F0809395
:104B800090020E9411078091E502843009F0BBCDAC
:104B900083E08093E9008091E80082FFB4CD8091AA
:104BA000E80090E085FF06C00E94C205882309F452
:104BB00040C191E08091E8008B778093E8009923D1
:104BC00009F4A1CDE981E150E33108F059C1F0E0E9
:104BD000E95AF34D0C94982B89EE92E095CE83EE32
:104BE00092E092CE8CED92E08FCE50925E01409298
:104BF0005D0180E280936702712C612C1092660245
:104C00005CE5852E52E0952E01E612E0C301B2016B
:104C1000A70196010E94762B605D603321F482E04B
:104C20000136180731F0411451046104710409F48C
:104C300060E2D80114966C93C301B201A7019601FA
:104C40000E94762B29013A01015011098016910624
:104C5000E9F67FCED8018D918D010E945F0B87CE42
:104C600087E093E00E94DF0B8ECE8091AB02882319
:104C700009F490CE80918D0281118CCE0E94890F13
:104C800020912A0330912B032115310509F482CE9E
:104C900080E041E050E0082F10E02A01082E02C019
:104CA000440C551C0A94E2F7B90164217521672B65
:104CB00011F48F5FF0CF90918C0290FF99C0880F14
:104CC000880F880F8093620110926501895F80933D
:104CD000630183E08093660124E630E047E050E022
:104CE00060E671E088E70E940329892B09F052CE23
:104CF000A80135E0440F551F3A95E1F780918C02E9
:104D000080FF88C0ECE6F2E080E2DF011D928A9528
:104D1000E9F7E1EBF1E0F8A7EFA36DEA71E0AFA1ED
:104D2000B8A52D91B8A7AFA3FB012190BF01240E18
:104D3000352E311CC101845D9C4F1C01E22FF0E037
:104D4000E459FD4F90E080E027E0622E681AAA2423
:104D5000A394082E01C0AA0C0A94EAF7410100E0CE
:104D6000D4011D914D011A21262D201B2770722E72
:104D7000022E000C330BB12F01C0BB0F7A94EAF75F
:104D80007B2E3195219531092770332701C0169567
:104D90002A95EAF7712A1081712A70820F5F083014
:104DA000F9F6019631968830910571F6E5EBF1E060
:104DB0002FA138A5E217F30709F0B1CF04E610E000
:104DC00020E230E04CE652E060E488E70E942429CB
:104DD000892B09F0DFCD4094509480912A03909163
:104DE0002B034822592250922B0340922A03D2CD02
:104DF0008295880F80768093620198013695279579
:104E00003695279520936501815E809363012093F9
:104E1000660162CF445D5C4F04E610E020E230E0C2
:104E2000D3CF81E02DCE81E033CE81E072CE81E020
:104E300078CE00E210E0CE0101965C018091E8009E
:104E400085FD0AC08091E8008B778093E8000E947E
:104E5000C205882399F3ADCE8091F100D5018D93E1
:104E60005D010150110951F7A4CE1A828CE08B83A9
:104E70001BC08A81823009F413C128F4813061F0AB
:104E80008FEF898311C08330C1F08430C9F71B8252
:104E90001C821D821E8208C00E9411070E949E2B48
:104EA0006B837C838D839E8340E250E0BE016F5F05
:104EB0007F4F82E00E94DF0C26CC2B81822F90E076
:104EC000FE013496245E8830910570F7DC01AF5600
:104ED000BD4F3C91319301962813F5CFE5CF8A81E0
:104EE000823019F0853001F3CBCF6B817C818D81CD
:104EF0009E810E949E2B88E290E00E94E22BD4CFFC
:104F00004C816B818A810E94640E9827892798279B
:104F10009E838D83C9CF2D813E813227232732275F
:104F20004C816B818A810E94DD0DBECF0E94030EF1
:104F3000BBCF80E18A83B8CF82E08A8387E597CFB1
:104F40000A811B81102701271027FE0131964F018E
:104F5000AC809F012A0D311D5901C80187559E4F14
:104F60008A149B0409F4A0CF073532E0130758F4E4
:104F70000E94C42BD40114968C930F5F1F4FFFEF38
:104F80008F1A9F0AEACFF4011482F7CF0A811B819E
:104F90001027012710279E012F5F3F4F4901AC804A
:104FA000A00EB12EB11CC80187559E4FA016B106A8
:104FB00009F47ACF073532E0130728F4D4011496A8
:104FC0006C910E94E22BBFEF8B1A9B0A0F5F1F4F61
:104FD000EACF0E94CD0D68CF84E0ACCF0A811B815F
:104FE000102701271027FE0131964F01AC809F0149
:104FF0002A0D311D5901C80189968A149B0409F4B0
:1050000053CF003831E0130758F40E94C42BD40169
:1050100014968C930F5F1F4FFFEF8F1A9F0AEBCFF1
:10502000F4011482F7CF0A811B8110270127102772
:105030009E012F5F3F4F4901AC80A00EB12EB11CE5
:10504000C80189960A151B0509F42ECF003831E0F6
:10505000130728F4D40114966C910E94E22BBFEF41
:105060008B1A9B0A0F5F1F4FEBCF09BD19BD09B407
:1050700000FEFDCF8091D8008F7D8093D800809175
:10508000E00082608093E0008091E00081FDFCCF31
:105090000E940612CECB822B892B09F461CD5ECD06
:1050A00088E290E00E94C42B1B821C821D828E83AA
:1050B000FBCE2B30310508F002CD35CD2B3031053C
:1050C00008F0B4CCE7CC1092B9008CE08093B80023
:1050D0000895B0E0A0E0EFE6F8E20C94262BB82E9D
:1050E000EB010E94D3116C01EE24E394F12CC43146
:1050F000D10560F025E0E22EF12CCF3FDC0731F046
:10510000CE0164E170E00E940B2B7B0184EAA82EA3
:1051100094E8992E1092BC00A092BC000E94D3117A
:105120008C018091BC0087FF0DC08091B900887F01
:105130008830F9F08091B900887F8031D1F00FEF8D
:105140001FEF08C0C8010E94C411E816F90648F70D
:105150000EEF1FEFCF3FDC07E9F2C6010E94C4113A
:10516000C817D907B8F6C801CDB7DEB7EBE00C9485
:10517000422BB092BB009092BC000E94D3118C01D4
:105180008091BC0087FF0AC08091B900887F883178
:1051900011F08034A1F610E000E0E5CFC8010E94D4
:1051A000C411E816F90660F7D3CF0F931F93CF937E
:1051B000DF93EB018093BB0084E88093BC000E94E6
:1051C000D3118C018091BC0087FF11C02091B900E0
:1051D000287F81E090E0283211F490E080E0919502
:1051E00081959109DF91CF911F910F910895CF3F44
:1051F000DC0741F3C8010E94C411C817D90710F792
:105200008EEF9FEFEFCFB0E0A0E0E9E0F9E20C9481
:10521000292B6B018A017901B9010E946928E601F5
:105220000C0D1D1DC017D10711F097FF08C024E910
:105230002093BC00CDB7DEB7E8E00C94452BB70156
:1052400089910E94D528EECFB0E0A0E0EAE2F9E231
:105250000C94292BC62F6A017901B8010E94692894
:1052600097FD0CC0B8018C2F0E94D528E601EC0CEC
:10527000FD1CCE15DF0511F097FF08C024E920932F
:10528000BC00CDB7DEB7E8E00C94452BB80189919E
:105290000E94D528EECF84E98093BC0008958EE16A
:1052A0004A9B02C08150E1F74A9BFECF08955A986D
:1052B00080E28A95F1F75A9A0895FC013BE03A950D
:1052C000F1F798E020E080E031E040E14A95F1F725
:1052D000880F4A9B02C08160232742E04A95F1F77C
:1052E000000040E14A95F1F7915079F790E19A95E5
:1052F000F1F799B132E03A95F1F7000040E14A95B3
:10530000F1F792FB992790F992272081920F9083D1
:105310000895A1E0B0E0EFE8F9E20C942B2B19829C
:105320008C017C01E60EF11C0E151F0541F481E095
:105330009981911180E02196E6E00C94472B0E9420
:105340004F29CE0101960E945D29F80181938F01BA
:10535000EBCF529A5A9A089552985A9AEA9AE9E6E5
:10536000F0E080818F7C808308956150770B91E01D
:1053700001C0990F6A95EAF720E031E0911108C069
:10538000222391F05A9A80E28A95F1F75A9808956B
:10539000492F482339F05A9A232740E24A95F1F7DA
:1053A0009695ECCF5A98F9CF5A98EDCFFF920F937C
:1053B0001F93CF93DF93EC018C01060F111DC017D3
:1053C000D10729F4CDB7DEB7E5E00C94482BF9906E
:1053D0000E94572968E08F2D0E94B529F0CF1F92B7
:1053E0000F920FB60F9211240F931F932F933F9399
:1053F0004F935F936F937F938F939F93AF93BF93DD
:10540000EF93FF93CF93DF930F92CDB7DEB719825F
:105410000E944F29CE0101960E945D29082F069512
:1054200006950695282F22952570902F9570290FA7
:10543000922F937026952695920F982797708981C1
:10544000982B09F05CC0043008F059C080E18A95BF
:10545000F1F75A9A529A82E08A95F1F700C05A9869
:1054600088E0089F80011124D801A45FBE4F1696E2
:10547000ED91FC9117973097A9F06091A10170917F
:10548000A20114962D913C911597260F371F119666
:105490008D919C911297680F791F13964C911397D9
:1054A0008C910995F801E45FFE4F6381662351F00A
:1054B0002091A1013091A20184819581820F931FD7
:1054C0000E94D6290E94572980E18A95F1F75A98BF
:1054D00052985A9A80E18A95F1F7F801E45FFE4FFD
:1054E0006081662351F02091A1013091A201818158
:1054F0009281820F931F0E9489290E944F290F9049
:10550000DF91CF91FF91EF91BF91AF919F918F91DB
:105510007F916F915F914F913F912F911F910F91CB
:105520000F900FBE0F901F9018950F931F93CF935E
:10553000DF93EC0104970CF04CC0F894529A5A98FF
:1055400085E08A95F1F700009C2F969595708C2F39
:105550008570980F892F83709695969523E0CC0FD0
:10556000DD1F2A95E1F7980F8E01092B0E9457291C
:1055700000C068E0802F0E94B52980E18A95F1F78C
:1055800052985A9A4A9B1EC087E090E04A991CC0E4
:10559000FE01E45FFE4F63816623F9F02091A101D3
:1055A0003091A20184819581820F931F0E948929E5
:1055B000811113C0529A5A9A7894DF91CF911F911A
:1055C0000F91089500C0DECF019729F4529A5A9A9C
:1055D000789480E0F2CF00C0D9CF0E944F2980E2BA
:1055E0008A95F1F75A98529A80E18A95F1F7C45F4B
:1055F000DE4F6881662351F02091A1013091A20114
:1056000089819A81820F931F0E94D6290E9457296F
:10561000789481E0D2CFAA1BBB1B51E107C0AA1F1F
:10562000BB1FA617B70710F0A61BB70B881F991F43
:105630005A95A9F780959095BC01CD0108952F92B8
:105640003F924F925F926F927F928F929F92AF9212
:10565000BF92CF92DF92EF92FF920F931F93CF935F
:10566000DF93CDB7DEB7CA1BDB0B0FB6F894DEBFF6
:105670000FBECDBF09942A88398848885F846E841C
:105680007D848C849B84AA84B984C884DF80EE8066
:10569000FD800C811B81AA81B981CE0FD11D0FB66F
:1056A000F894DEBF0FBECDBFED010895991B79E0E0
:1056B00004C0991F961708F0961B881F7A95C9F7A2
:1056C0008095089597FB072E16F4009407D077FD78
:1056D00009D00E940B2B07FC05D03EF490958195D4
:1056E0009F4F0895709561957F4F0895A1E21A2EFE
:1056F000AA1BBB1BFD010DC0AA1FBB1FEE1FFF1F76
:10570000A217B307E407F50720F0A21BB30BE40BC5
:10571000F50B661F771F881F991F1A9469F760950C
:105720007095809590959B01AC01BD01CF010895C6
:10573000EE0FFF1F0590F491E02D0994692796273D
:1057400069277827872778270895FB01DC0102C0A5
:1057500005900D9241505040D8F70895FB01DC01AF
:1057600004C08D910190801921F441505040C8F738
:10577000881B990B0895FB01DC0102C001900D927A
:1057800041505040D8F70895F999FECF92BD81BDA0
:10579000F89A992780B50895A8E1B0E042E050E07A
:1057A0000C94082CDC01A40FB51F4150504048F068
:1057B000CB01840F951F2E910E94E32B4150504046
:1057C000D0F70895262FF999FECF92BD81BDF89AA2
:1057D000019700B4021639F01FBA20BD0FB6F89435
:1057E000FA9AF99A0FBE08950396272F0E94E32B89
:1057F0000E94E22B252F0E94E32B242F0C94E32BF5
:105800000196272F0E94E32B0C94E22BDC01CB01A5
:10581000FC01F999FECF06C0F2BDE1BDF89A3196C0
:1058200000B40D9241505040B8F70895F894FFCF5E
:1058300016133E13E1143E13E11471139213E11495
:1058400090149D14BB1B301CC31B8D1B911BC71BCD
:10585000951BCB1BD71BA11B291CA51BDB1BA91B45
:10586000DF1B071CAD1BE31B0E1CB31BE91BF11B4D
:10587000991BCF1B9D1BD31BB71BED1BFD1B171CBF
:10588000271C871BBF1B371C631B691B541B5D1B1D
:105890006F1B751B7B1BE11CE11C151D151DB81D25
:1058A000D21D3D1D3D1DD71D421E511E511E3527C7
:1058B00039276F2780278B279627402740274027A7
:1058C0004027402799279C27A027C627E927EC27B0
:0458D000EE27132884
:1058D400E000E002E700E200E300E108000000016C
:1058E40000000000000000040100000004050000A6
:1058F4000000000001FD06280D210D1A0D00000016
:1059040000000090178A17731600000801000000B9
:1059140000000090178A17731600000401000000AD
:1059240000000090178A17731600000001FF002082
:105934000021007F22000301818283E200E900EA62
:1059440000B500B600B700CD008301CC008A0192F7
:105954000194012102230224022502260227022A9D
:1059640002B300B4006F0070009F01CB019F02A03E
:10597400023802946697C6F4F5F6F731330008103E
:1059840018181008004422B684016201AC00DD043A
:04599400F6041605FA
:00000001FF
