:100000000C9483050C94A0050C94A0050C94213449
:100010000C94A0050C94A0050C94A0050C94A005CC
:100020000C94A0050C94A0050C949D100C94BC1489
:100030000C940A2D0C94A0050C94A0050C94A0051A
:100040000C94A0050C94A0050C94A0050C94A0059C
:100050000C94A0050C9476110C94A0050C94A005AA
:100060000C94A0050C94A0050C94A0050C94A0057C
:100070000C94A0050C94A0050C94A0050C94A0056C
:100080000C94A0050C94A0050C94A0050C94A0055C
:100090000C94A0050C94A0050C94A0050C94A0054C
:1000A0000C94A0050C94A0050C94A0056E006A7E2B
:1000B00000006E00777E00006E00767E00006E000D
:1000C000757E00006E00747E00006E00737E00007E
:1000D0006E00727E00006E00717E00006E00707E09
:1000E00000006E006F7E00006E00787E00006E00E3
:1000F0006E7E00006E006D7E00006E006C7E000063
:100100006E006B7E00006D006A7E00006D00777EE1
:1001100000006D00767E00006D00757E00006D00B1
:10012000747E00006D00727E00006D00717E000024
:100130006D00707E00006D006F7E00006D00787EA7
:1001400000006D006E7E00006D006D7E00006D0091
:100150006C7E00006D006B7E00006D004D7E000027
:100160006D004C7E00006D004B7E00006D004A7EED
:1001700000006D004E7E00006D00497E00006D00A5
:10018000487E00006D00477E00006D00467E000046
:100190006D00457E00006D00447E00006D00437ED2
:1001A00000006D00427E00006D00417E00006D0089
:1001B000407E00006E004D7E00006E004C7E000010
:1001C0006E004B7E00006E004A7E00006E00497E8D
:1001D00000006E00487E00006E00477E00006E004A
:1001E000467E00006E00457E00006E00447E0000EA
:1001F0006E00437E00006E00427E00006E00417E75
:1002000000006E00407E00002020202061626364B8
:1002100065666768696A6B6C6D6E6F707172737416
:1002200075767778797A31323334353637383930F4
:10023000524542545F2D3D5B5D5C233B27602C2E75
:100240002F2020202B0014001A0008001500170092
:10025000290004001600070009000A0002571D00CB
:100260001B000600190005000000000000000057F8
:1002700004572C431F02130012000C0018001C002E
:10028000330233000F000E000D000B00E2003800B7
:100290003700360010001100000000000000015778
:1002A000035728430000407E417E427E437E447EC9
:1002B0000000457E467E477E487E497E00004E7E99
:1002C0004A7E4B7E4C7E4D7E000000000000000008
:1002D0006D002C43797E787E6E7E6D7E6C7E6B7EAB
:1002E0000000737E727E717E707E6F7E00006A7E7B
:1002F000777E767E757E747E000000000000000030
:100300006E0028430000000042004100400043000E
:10031000000000003F003E003D00440000000000DF
:100320003C003B003A004500000000000000005780
:1003300062522C430000000026002500240000002B
:100340000000000023002200210000000000000047
:1003500020001F001E000000000000000000270019
:100360006152284321023100220232001E0224027F
:100370002D002E0026022F002F022E022D0200003B
:1003800027023000300231020000000000000000AF
:100390002C0800001F0200005218520034023400E2
:1003A000250200004F00510050002A0038000000D4
:1003B000000051182C122C0000000000000000006A
:1003C0002C18000000DA0281FFD9F1DB20A4A62E50
:1003D000AF00A0C0D30000A1C8D30000AED580A854
:1003E0001F408D142000556E6465660041646A7577
:1003F0007374005261697365004C6F7765720044D5
:10040000656661756C74004C617965723A20003ADA
:10041000002C206B00780080818283848586878809
:10042000898A8B8C8D8E8F9091929394A0A1A2A398
:10043000A4A5A6A7A8A9AAABACADAEAFB0B1B2B304
:10044000B4C0C1C2C3C4C5C6C7C8C9CACBCCCDCE4F
:10045000CFD0D1D2D3D40000AF00AE05010902A1A4
:100460000185020901A100050919012908150025C6
:1004700001950875018102050109300931158125B1
:100480007F95027508810609381581257F950175CC
:10049000088106050C0A38021581257F950175082B
:1004A0008106C0C005010980A101850319012AB791
:1004B00000150126B700950175108100C0050C09D3
:1004C00001A101850419012AA002150126A00295A7
:1004D0000175108100C005010906A1018506050707
:1004E00019E029E715002501950875018102050726
:1004F000190029EF1500250195F075018102050805
:100500001901290595057501910295017503910160
:10051000C005010906A101050719E029E715002515
:10052000019508750181029501750881010507197A
:100530000029FF150026FF009506750881000508B3
:1005400019012905150025019505750191029501EF
:1005500075039101C009023B00020100A0FA0904E1
:1005600000000103010100092111010001224400E2
:1005700007058103080001090401000103000000D0
:1005800009211101000122B60007058203200001A4
:1005900012010002000000085346010001000102A0
:1005A00000010C0343006F0072006E006500000044
:1005B000100366006F006F007300740061006E002E
:1005C0000000040309040000000000003E5B4F5BD4
:1005D0003E003E6B4F6B3E001C3E7C3E1C00183CB8
:1005E0007E3C18001C577D571C001C5E7F5E1C0063
:1005F00000183C180000FFE7C3E7FF0000182418AC
:100600000000FFE7DBE7FF0030483A060E0026292E
:1006100079292600407F05050700407F05253F001A
:100620005A3CE73C5A007F3E1C1C0800081C1C3E3C
:100630007F0014227F2214005F5F005F5F000609C5
:100640007F017F00006689956A00606060606000DD
:1006500094A2FFA2940008047E04080010207E20CB
:10066000100008082A1C0800081C2A0808001E1090
:10067000101010000C1E0C1E0C0030383E383000DC
:10068000060E3E0E060000000000000000005F00A5
:100690000000000700070000147F147F1400242AC4
:1006A0007F2A120023130864620036495620500046
:1006B000000807030000001C224100000041221C2A
:1006C00000002A1C7F1C2A0008083E080800008041
:1006D0007030000008080808080000006060000092
:1006E0002010080402003E5149453E0000427F4070
:1006F00000007249494946002141494D3300181410
:10070000127F10002745454539003C4A49493100D0
:10071000412111090700364949493600464949290E
:100720001E0000001400000000403400000000081B
:10073000142241001414141414000041221408005F
:100740000201590906003E415D594E007C1211120A
:100750007C007F49494936003E41414122007F41AA
:1007600041413E007F49494941007F090909010093
:100770003E41415173007F0808087F0000417F41DE
:1007800000002040413F01007F08142241007F40CB
:10079000404040007F021C027F007F0408107F0061
:1007A0003E4141413E007F09090906003E41512179
:1007B0005E007F0919294600264949493200030194
:1007C0007F0103003F4040403F001F2040201F00AA
:1007D0003F4038403F00631408146300030478046A
:1007E00003006159494D4300007F4141410002042B
:1007F00008102000004141417F0004020102040072
:100800004040404040000003070800002054547856
:1008100040007F2844443800384444442800384489
:1008200044287F0038545454180000087E09020000
:100830001824241C78007F080404780000447D40BC
:1008400000002040403D00007F102844000000418F
:100850007F4000007C04780478007C080404780061
:100860003844444438007C182424180018242418E0
:100870007C007C08040408004854545424000404F8
:100880003F4424003C4040207C001C2040201C00B1
:100890003C4030403C004428102844004C9090904C
:1008A0007C004464544C44000008364100000000C1
:1008B0007700000000413608000002010204020037
:1008C0003C2623263C000000000000000000000041
:1008D000000000000000C0E0F0F8F81800C0F0FCD4
:1008E000FEFFFFFFFFFFFFFF7E0000000000000093
:1008F000000080C0E0E0E0E0E0E0E0E0C080000078
:10090000000080C0E0E0E0E0E0E0E0E0C080000067
:1009100000E0E0C0C0E0E0E0E00000E0E0C0C0E0F7
:10092000E0E0E0E0C0800000000080C0E0E0E0E047
:10093000E0E0E0E0C08000000000000000000000F7
:1009400000000000E0F0F0F0E0ECEEF7F3702000C3
:100950007C7C7C7E007E7E7E7F7F7F000080C0E08E
:100960007E5B4F5BFEC00000C000DCD7DEDEDED762
:10097000DC00C000000000000000000000000000DB
:10098000000000000000000000000000000000F86F
:10099000FCFEFFE000FFFFFFFFFFFF80FFFFFFFF08
:1009A000FFFFFFFFFF1F0701000000000000000025
:1009B00000FFFFFF8100000000000081C3C3C300EF
:1009C00000FFFFFF8100000000000081FFFFFF002B
:1009D00000FFFFFF01000000000000FFFFFF01001B
:1009E00000000001FFFFFF0000FFFFFF9D1C1C1C1B
:1009F0001C1C1C9DDFDFDF00000000000000000069
:100A0000000000000F1F3F7F7F7F7F7F3F1E0C0095
:100A10001F1F1F3F003F3F3F7F7F7F00307B7F785E
:100A200030202030787F3B0003000F7F0F0F0F7FB7
:100A30000F000300000000000000000000000000A4
:100A400000000000000000000000000000000003A3
:100A50000F1F3F3F3F3F1F1F3F3F7F7F7F3F3F1F96
:100A60003F7F7F7F7F7C7878381C0F00000000007C
:100A70000000010307070707070707070301000036
:100A80000000010307070707070707070301000026
:100A9000000707070000000000000007070700002C
:100AA0000000000007070700000001030707070711
:100AB0000707070703010000000000000000000016
:100AC0000000000000000000000000000000000026
:100AD0000000000000000000000000000000000016
:100AE0000000000000000000000000000000000006
:100AF00000000000000000000000000000000000F6
:100B000000000000000011241FBECFEFDAE0DEBFBE
:100B1000CDBF13E0A0E0B1E0E4E0FDE602C0059047
:100B20000D92AC36B107D9F727E0ACE6B3E001C0CF
:100B30001D92AE36B207E1F70E94312D0C9441367A
:100B40000C940000482F209162059091190559E0FE
:100B5000291302C080E0089530E0529FF001539FB6
:100B6000F00D1124E65EFA4F8181681306C0808182
:100B7000481303C085818111EECF2F5F3F4F27704F
:100B8000E7CFFC01AC014C5F5F4F8FEF91E3219108
:100B9000822728E030E087FF09C0880F892721508D
:100BA0003109C9F7E417F50791F70895880FF7CFD2
:100BB000E8EDF0E080818E7F80831092E200109259
:100BC000DA001092E100A0EEB0E08C9181608C938D
:100BD00080818F77808319BCA7EDB0E08C918E7FE8
:100BE0008C9380818F7E80831092EA0408952091F7
:100BF000E4003091E50095E6A9012091EC00822FF8
:100C0000817020FF06C08091E80080FF06C080E070
:100C100008952091E80022FD1AC080910F058823D5
:100C200089F0853089F08091EB0085FD0FC020911F
:100C3000E4003091E50042175307F9F29150E1F6D4
:100C400084E0089582E0089583E0089581E00895A6
:100C50008091110587FF13C08091E80082FF06C0D4
:100C60008091E8008B778093E80004C080910F05A5
:100C70008111F2CF089580910F058823D9F38091D7
:100C8000E80080FFF8CF8091E8008E77ECCF982FB6
:100C90009093E900242F762F50E0891731F070915E
:100CA000EC002091ED005091F00021FD07C09F5F06
:100CB000973071F78093E90081E008953091EB005F
:100CC0003E7F3093EB003091ED003D7F3093ED009F
:100CD0003091EB0031603093EB007093EC00209387
:100CE000ED005093F0002091EE0027FDE0CF80E072
:100CF0000895B0E0A0E0EFE7F6E00C945B35C8EDB6
:100D0000D0E088818F7E8883E7EDF0E0808181608C
:100D1000808384E082BF81E08093EA0488818E7FB3
:100D2000888302EE10E0F80110821092DA0081EE62
:100D3000C82ED12CF601108288818F778883888114
:100D40008068888388818F7D888319BC10920F0505
:100D50001092100510920E0510920D0590EEE92EDE
:100D6000F12CF70180818B7F80838881816088836B
:100D700042E060E080E00E944706F60180818E7FBD
:100D80008083F80180818160808380818860808396
:100D9000F70180818E7F8083888180618883CDB7D1
:100DA000DEB7E8E00C947735FC018091170590914F
:100DB000180586179707A0F06115710529F4909121
:100DC000E8009E779093E80090E06115710551F47A
:100DD000911108C08091E80082FF34C080E008953E
:100DE000BC01F2CF80910F058823C1F18530C1F19C
:100DF0008091E80083FD30C08091E80082FDEACF59
:100E00008091E80080FFE1CF8091F3002091F20013
:100E1000382F6115710519F02830310558F091E02F
:100E20002830310509F090E02091E8002E772093DA
:100E3000E800CBCF81918093F100615071092F5F61
:100E40003F4FE7CF80910F05882341F0853041F077
:100E50008091E80083FFBECF81E0089582E008958D
:100E600083E008958091EC04089587E797E79093D5
:100E700001088093000888E19AE00FB6F894A895DD
:100E8000809360000FBE90936000FFCF2FB7F8945F
:100E90006091E4047091E5048091E6049091E70488
:100EA0002FBF089520911E032223C9F02091E8044A
:100EB00027FF15C0E62FE695E695E695EE31D8F4C6
:100EC000E80FF92FF11D677021E030E001C0220F1B
:100ED0006A95EAF720958281282322830895FC01F0
:100EE000329608962191621303C0DF0111971C927C
:100EF000E817F907B9F7089520911E032223C1F0DE
:100F00002091E80427FF14C0E62FE695E695E695C4
:100F1000EE31F8F4E80FF92FF11D677021E030E0B1
:100F200001C0220F6A95EAF78281822B828308959D
:100F3000FC0132962FEF30E04191641751F02F3FC2
:100F400019F4411101C0232F3F5F3630A9F72F3F1D
:100F500009F40895820F911D27FD9A95FC01628383
:100F60000895A3E0B0E0E7EBF7E00C946135209141
:100F7000E1043091E20428173907A1F09093E204CC
:100F80008093E104E091DF04F091E004309751F0A8
:100F900024E029839B838A830680F781E02DCE019C
:100FA000019609952396E2E00C947D35A3E0B0E02C
:100FB000ECEDF7E00C9461352091DD043091DE0416
:100FC00028173907A1F09093DE048093DD04E091A7
:100FD000DF04F091E004309751F023E029839B83F4
:100FE0008A830680F781E02DCE010196099523962C
:100FF000E2E00C947D354115510511F0FA01099597
:101000000895DC016091D2048091D304962F891356
:1010100001C00895292F30E0F901EE0FFF1FE653BC
:10102000FB4F408151814A175B07A1F487E08A9FFB
:10103000A0018B9F500D112449575E4F81E0FA01AA
:1010400084839613E6CF2F5F3F4F2370332720937F
:10105000D20408952F5F3F4F922F9370D8CF1092F4
:101060005F0410925E04E7E8F1E08DE193E02581F2
:10107000211102C01482168237968E179F07B9F786
:10108000089580914D0480FD16C081FD16C082FD3B
:1010900016C080914C048823A1F0883280F428E0A7
:1010A000829FC001112468E270E00E949435862F6F
:1010B000672B39F0089582E0089584E0089588E070
:1010C000089581E0089580914D0480FD14C081FD54
:1010D00014C082FD16C080914B04882381F08E31AC
:1010E00080F420E5829FC00111246EE170E00E942F
:1010F0009435862F089584E1089588E2089588E064
:10110000089580E50895282F35EB2303C0011124AD
:1011100097FF04C080589109892F089580589F4FE8
:10112000FBCF80E00895F894E82FE295EF70F0E0AF
:1011300031A1282F2F7081E090E001C0880F2A95FF
:10114000EAF7982F9095932391A392A1892B82A3DC
:10115000789408959091E80492FF10C041E0282F00
:101160002471243009F040E031E0282F2871283024
:1011700009F030E0431711F02CE0822793FF10C0F4
:1011800041E0282F2471243109F040E031E0282F7C
:101190002871283109F030E0431711F02CE0822744
:1011A0003091E90430FF10C051E0282F2171213027
:1011B00009F050E041E0282F2871283009F040E084
:1011C000541711F029E0822731FF10C041E0282F89
:1011D0002171213109F040E031E0282F28712831B8
:1011E00009F030E0431711F029E0822794FD877E53
:1011F000089582389105B9F1B0F48133910509F46D
:101200007DC048F48932910509F46DC08A32910598
:1012100009F47BC008958533910509F45FC08933D3
:10122000910509F10895833E9105D9F138F4803E86
:10123000910529F1823E910579F10895863E910547
:10124000D9F1873E910509F43EC0843E910541F5F0
:101250002091E90421FF24C08091E80484FD19C095
:1012600087EE90E008952091E804237009F05AC0B9
:101270002091E90423FF14C089E290E008952091B1
:10128000E80420FD38C03091E90430FF09C024FF94
:1012900043C090E080E008952091E80422FDF7CF5C
:1012A00008952091E80422FD3AC03091E90430FD10
:1012B00039C024FFF5CFEDCF2091E80423FFF0CF14
:1012C00024FDE7CFCDCF2091E80423FD2EC030913F
:1012D000E90431FFEECF84EE90E008952091E80418
:1012E00025FFDECFC9CF2091E80425FD21C0209144
:1012F000E90423FFD5CF89E390E0D2CF2091E80421
:1013000026FFCECF8AE290E008952091E80426FFE0
:10131000C7CF81E390E0089583EE90E0089582EED8
:1013200090E0089580EE90E0089586EE90E00895B4
:1013300085E390E00895972F7830B8F46630A8F4EC
:101340008430B0F470E026E0929F600D711D11248E
:10135000FB0190E3899FE00DF11D1124EE0FFF1FAB
:10136000EC5BFD4F85919491089580E090E00895A5
:1013700081E0FCCF1F93CF93DF930E94F908EC012B
:10138000C11580E5D807F0F5C11580E4D80708F04D
:101390009CC0C03ED10520F5CD3CD10508F082C0EF
:1013A000C83AD10578F4C53AD10508F073C0C13008
:1013B000D10519F1209709F1C430D105F0F4D0E03E
:1013C000C0E01BC0C33CD105D0F7C85AD0E0CC0F59
:1013D000DD1FCE5DDC4F0990D881C02DD4640DC0D7
:1013E000C11580E2D80708F0D1C0C11581E0D80747
:1013F00008F05AC0C83ED10510F7CE01DF91CF9159
:101400001F910895C03682E5D80718F5C03482E5EB
:10141000D80708F06BC0C03282E5D80708F05FC07B
:10142000C11582E5D80708F497C02C2F269526957C
:1014300080E2289F900111248C2F8370C1E0D0E0BE
:1014400002C0CC0FDD1F8A95E2F7C22BD32BDD68DB
:10145000D4CFC03A82E5D80760F4C03882E5D80717
:1014600008F459C0CF71D0E0DC2FCC27C46FD06A0C
:10147000C4CFC03C82E5D80708F462C0C03E82E514
:10148000D80708F09CCFDC2FCC27CC27DF71C06FAA
:10149000D06AB3CFC55AD0E0C15EDC4FC881D0E07E
:1014A000D064ABCFD065A9CF8D2F0E94AA08182F8A
:1014B000CE0199270E94F908C12FD0E0DC2FCC275C
:1014C000CC27DF71C82BD92B98CFCE0199270E944A
:1014D000F908CC27DF70C82BD92BD06A8ECFCF71FB
:1014E000D0E0DC2FCC27C16FD06A87CF2C2F269578
:1014F0002695277080E2289F900111248C2F8370FD
:10150000C1E0D0E002C0CC0FDD1F8A95E2F7C22B0C
:10151000D32BDC6872CF2C2F26952695277080E27E
:10152000289F900111248C2F8370C1E0D0E002C06D
:10153000CC0FDD1F8A95E2F7C22BD32BDA685DCF83
:101540008C2F8F710E94AA08C82FD0E0DC2FCC27E7
:10155000CC27DF71D06251CF8C2F8F710E94AA08E7
:1015600055E0D695C7955A95E1F7CF70D0E0DC2FBE
:10157000CC27282F30E084FF05C044E0220F331F22
:101580004A95E1F7C22BD32BD06937CF8D2F8F71BE
:101590000E94AA08182FCE0199270E94F908C12F8E
:1015A000D0E0DC2FCC27CC27DF71C82BD92BD2CFB2
:1015B00080959091D90498239093D90408958095AB
:1015C0009091DA0498239093DA040895809162054B
:1015D00090911905981301C008958F5F8770FACF15
:1015E000B0E0A0E0E6EFFAE00C945A357C010091FF
:1015F000190410911A048091040490910504082B99
:10160000192BCFE0D0E0CC24C394D12CBC2EC60142
:101610000C2E02C0880F991F0A94E2F780239123B1
:10162000892B49F4219790F7B12C8B2DCDB7DEB7DC
:10163000E9E00C947635B7018C2F0E949B090E943B
:10164000BA09019779F3F1CFCF93DF93EC010E94B0
:10165000F00ABE010E949B090E94BA09DF91CF9156
:101660000895983078F5863068F5E82FF0E086E048
:10167000989FE00DF11D11249E2F977083E0F69541
:10168000E7958A95E1F7EE0FFF1FEE0FFF1FE0577A
:10169000FC4F50E040E080E0219130E0092E02C094
:1016A000369527950A94E2F721703327042E01C05E
:1016B000220F0A94EAF7822B4F5F5F4F44305105A7
:1016C00059F7089580E00895983098F5863088F5A8
:1016D000E82FF0E086E0989FE00DF11D11248E2F99
:1016E000877041E001C0440F8A95EAF783E0F695E0
:1016F000E7958A95E1F7EE0FFF1FEE0FFF1FE0570A
:10170000FC4F30E020E070E05191DF011197CB01F8
:10171000022E02C0969587950A94E2F78170819512
:101720008527842385278C932F5F3F4F24303105F5
:1017300059F7089590931A0480931904089521E0AD
:1017400030E002C0220F331F8A95E2F7809119041E
:1017500090911A04822793270E949A0B089521E002
:1017600030E002C0220F331F8A95E2F720953095B2
:101770008091190490911A04822393230E949A0B5A
:1017800008959091B103809589238093B103282F08
:10179000277069F4891759F09091E90492FF07C006
:1017A0008695869586950E94AF0B1092B103089599
:1017B00021E030E002C0220F331F8A95E2F78091CA
:1017C000190490911A04822B932B0E949A0B08956E
:1017D00090930504809304040895FC018481882378
:1017E000F9F087819085009791F00E94BA0992954F
:1017F0009F709630B9F080F4925F9F70923080F4C1
:10180000803F19F058F4883E58F481E008958081B3
:1018100091810E94240BEBCF9A5FEFCF843FA9F315
:1018200080E00895883E88F3813FD1F7EECF292FDD
:10183000332740E02115310511F0C90148E09C0132
:1018400064E0369527956A95E1F72115310511F089
:101850004C5FC9019C013695279536952795211532
:10186000310511F04E5FC90196958795892B09F0D6
:101870004F5F842F0895A6E0B0E0E1E4FCE00C9413
:1018800060359C01FC01878190850097E1F486E03A
:10189000DE01119601900D928A95E1F7F9012581FB
:1018A00089819A81222399F0662389F00E94F00AA7
:1018B000182F682F89819A810E94640B69817A812F
:1018C000812F0E949B092696E3E00C947C350E94B0
:1018D000310B182FF3CF9C013A9521153F4150F55C
:1018E000FC01EE27F170BC0166277270AC01442741
:1018F00054709C012227387094FF0EC080E1EF2BBA
:1019000009F480E0672B09F08062452B09F08064C0
:10191000232B89F08068089581E0EF2B09F480E0A3
:10192000672B09F08260452B09F08460232B19F0A6
:101930008860089580E00895CF93DF93682F81E059
:101940006A3019F06D3031F480E00E942A0DDF9189
:10195000CF91089580916C0790916D0726E0FC016E
:10196000A6E6B7E001900D922A95E1F7603E08F4F3
:1019700058C026E0FC0111922A95E9F7C0916C0746
:10198000D0916D0746E050E0BE0186E697E00E94E8
:10199000D9359E0126563540892B41F1C90145E0D4
:1019A000969587954A95E1F741E050E0BA0102C06B
:1019B000660F771F8A95E2F7CB01609164057091FD
:1019C0006505862B972BB9016B5F7F4FE5E0769518
:1019D0006795EA95E1F702C0440F551F6A95E2F753
:1019E000842B952B90936505809364052A5F3F4F68
:1019F00040916305642F70E0C9010E943D35481B8A
:101A0000463010F4240F311D211572E0370710F015
:101A100030E020E02A593A4F30936D0720936C074D
:101A200096CFF6E06F9FB00111246A537A4F46E0DB
:101A300050E00E94D035A2CFCF93DF93EC01FE019E
:101A40008491811103C0DF91CF9108950E949C0C75
:101A50002196F5CFCF93382FE0916C07F0916D0769
:101A6000E656F54020916305622F70E0CF010E9499
:101A70003D35281B822F332361F066E00E948835B4
:101A8000C82FC15010F4CF91089580E20E949C0CA1
:101A9000F8CF9F01280F311D2115324018F080E04A
:101AA000F0E0E0E08E0F9F2F911D8A599A4F90939E
:101AB0006D0780936C07E7CF0E941C0D81E00E94A8
:101AC0002A0D08958091DA049091D904892B80938E
:101AD0006E039091D2039923A1F0892B80936E031A
:101AE00080911E038823E1F18091E80487FF38C0CC
:101AF0008EE1E0E7F3E090E08150A0F591111092C3
:101B0000D20340E250E062EB73E08EE693E00E9485
:101B1000D935892B21F180E2EEE6F3E0A2EBB3E0C8
:101B200001900D928A95E1F7E091DF04F091E004D5
:101B30003097A9F080911E03882359F08091E80422
:101B400087FF07C080916E0380936F0386E08093C8
:101B50006E030280F381E02D8EE693E009950895EF
:101B600086E0C7CF2191222339F29F5FC5CFCF9363
:101B7000DF93EC014A855B856E857F850E94FB07BC
:101B80008B810E94D80A8C810E94DF0A0E94620D1C
:101B900086E0FE0111928A95E9F7DF91CF910895D1
:101BA000CF93DF93EC018D8181FD17C082608D831F
:101BB0008091D9049B81892B8093D9048091DA0488
:101BC0009C81892B8093DA040E94620D4885598597
:101BD0006E857F85CE010E94FB071092DC04109277
:101BE000DB048D8180FD03C0CE010E94B70DDF9123
:101BF000CF910895882321F00E94D80A0E94620D97
:101C00000895882339F09091D904982B9093D904A2
:101C10000E94620D0895882321F00E94DF0A0E942D
:101C2000620D089582E00E940B0E0895882339F01A
:101C30009091DA04982B9093DA040E94620D089533
:101C4000FC01858180FF04C082E00E94160E089589
:101C500082E00E949F0B08950F931F93CF93DF9311
:101C60008B01EA0190910F05943061F58093E900B2
:101C70008FEF9091E800815095FD06C095ED9A9503
:101C8000F1F700008111F5CF8091E80085FF1AC0BF
:101C90000E94F705811111C08091E80085FD06C002
:101CA0008091E8008E778093E800F2CFF80181916F
:101CB0008F018093F100219779F78091E8008E776A
:101CC0008093E800DF91CF911F910F91089543E039
:101CD00050E0BC0182E00E942C0E089546E050E0E6
:101CE000BC0182E00E942C0E0895CF93DF93EC019B
:101CF00080911E03811111C048E050E0BE0181E0D7
:101D00000E942C0E80E2FE01ADEEB4E001900D9237
:101D10008A95E1F7DF91CF9108958091E80487FFDC
:101D200005C040E282E050E0BE01EACF48E081E039
:101D3000FACFB0E0A0E0EFE9FEE00C9459357C0169
:101D40005B016A018091F50301E010E08A3010F434
:101D50000AE010E0C1E0D0E0B501C701F601099545
:101D6000811104C021960C171D072CF4CDB7DEB7E6
:101D7000EAE00C947535CC9F9001CD9F300D300D6D
:101D8000112490E080E045E34A95F1F700000196C8
:101D900082179307C1F7E0CF8091DF03811110C054
:101DA0008091D80080618093D8008AE18A95F1F70C
:101DB00000C08091D90080FF0AC081E08093DF03DA
:101DC00081E09091DF03913009F080E0089582E096
:101DD0008093DF030E94D80510920F05F1CF0E9477
:101DE000CC0E882359F0E091DF04F091E0043097A5
:101DF00029F00190F081E02D0995089580E0089583
:101E00000F931F930E94CC0E882329F00E9446074F
:101E10001F910F9108950E9446070091F6031091BB
:101E2000F7032091F8033091F903600F711F821FAF
:101E3000931FEECFB0E0A0E0E0E2FFE00C945B3552
:101E40006C017B0164E670E088E70E949B328C01A4
:101E5000E601EC0CFD1C17FD0BC0FE01849164E64D
:101E600070E00E9407338C012196CE15DF0599F7AB
:101E70000E947D3381E00115110509F080E0CDB7A6
:101E8000DEB7E8E00C94773580915C0490915D04B6
:101E9000911103C091E089270895882369F062E0D9
:101EA00070E089E594E00E941A0F811103C08091CF
:101EB0005C04089510925C0480915C04EBCFCF9396
:101EC000C0915C0480915D048823D1F00E94460794
:101ED000605A75418F4F9F4F609358047093590417
:101EE00080935A0490935B04C11108C062E070E0D3
:101EF00087E594E00E941A0F811105C0C0915C042F
:101F00008C2FCF91089581E080935C04F7CF90915E
:101F1000E90492FB222720F9281779F080FB92F937
:101F20009093E9046091E8047091E90484E090E002
:101F30000E942B3682E00E94C10B0895A4E0B0E01D
:101F4000E4EAFFE00C9460354091F1035091F20314
:101F50006091F3037091F4032FB7F8948091E40437
:101F60009091E504A091E604B091E7042FBF841B93
:101F7000950BA60BB70B11E084369105A105B105B1
:101F800070F10E94000F6E5F7F4F8F4F9F4F6983EC
:101F90007A838B839C8380911D0190911E018851CF
:101FA0009C4F40911C0150E04530510510F044E039
:101FB00050E0BE016F5F7F4F0E94E63582E090E007
:101FC0000E94C734182F882351F00E94460760935F
:101FD000F1037093F2038093F3039093F403812F42
:101FE0002496E3E00C947C35EF92FF921F93CF93FD
:101FF000DF9300D000D00F92CDB7DEB77B0190E029
:1020000080E00E94C734182F882309F487C04091CC
:102010000F0150E04115510511F041E050E0609191
:1020200010017091110168517C4FCE0105960E94FC
:10203000E6354091E4035091E5036091E603709129
:10204000E7032FB7F8948091E4049091E504A09100
:10205000E604B091E7042FBF841B950BA60BB70BCA
:1020600084369105A105B10540F489EE93E00E9404
:10207000C1059D81891709F451C081E090E00E945B
:10208000C73481111AC010E08091E0039091E10300
:10209000A091E203B091E303F70180839183A283CF
:1020A000B383812F0F900F900F900F900F90DF91BF
:1020B000CF911F91FF90EF9008954091170150E04C
:1020C0004530510510F044E050E0609118017091E6
:1020D000190168517C4FCE0101960E94E63589EEC8
:1020E00093E00E94C1059D818913CDCF0E944607D0
:1020F0006093E4037093E5038093E6039093E70312
:1021000089819A81AB81BC818093E0039093E10344
:10211000A093E203B093E30311E0B6CF8091E9030B
:102120009091EA03A091EB03B091EC0389839A8329
:10213000AB83BC831111E4CFA7CF1F920F920FB6D0
:102140000F9211242F933F934F935F936F937F933D
:102150008F939F93AF93BF93EF93FF938091E10091
:1021600082FF09C08091E20082FF05C08091E100FA
:102170008B7F8093E1008091DA0080FF24C0809102
:10218000D80080FF20C08091DA008E7F8093DA0033
:102190008091D90080FF9DC080E189BD82E189BD29
:1021A00009B400FEFDCF81E080930F058091EA0421
:1021B000811109C00E94D8050E9479068091E20031
:1021C00084608093E2008091E10080FF17C08091DD
:1021D000E20080FF13C08091E2008E7F8093E200D6
:1021E0008091E20080618093E2008091D80080625B
:1021F0008093D80019BC85E080930F058091E100A1
:1022000084FF2BC08091E20084FF27C080E189BD5C
:1022100082E189BD89B5982F917080FFFBCF8091B5
:10222000D8008F7D8093D8008091E1008F7E8093CD
:10223000E1008091E2008F7E8093E2008091E200D5
:1022400081608093E20080911005882309F447C0E3
:1022500084E080930F0580910F058091E10083FF5A
:1022600027C08091E20083FF23C08091E100877F37
:102270008093E10082E080930F0510921005809119
:10228000E1008E7F8093E1008091E2008E7F809359
:10229000E2008091E20080618093E20042E060E031
:1022A00080E00E9447068091F00088608093F000F3
:1022B000FF91EF91BF91AF919F918F917F916F911E
:1022C0005F914F913F912F910F900FBE0F901F90F4
:1022D000189519BC10920F051092EA0474CF8091E2
:1022E000E30087FD93E090930F05B5CF78941F929C
:1022F0001FB61F9211248F939F93AF93BF9380912A
:10230000E4049091E504A091E604B091E7040196FD
:10231000A11DB11D8093E4049093E504A093E6040D
:10232000B093E704BF91AF919F918F911F901FBE13
:102330001F9018959C014FB7F8948091E4049091F8
:10234000E504A091E604B091E7044FBF821B930B14
:1023500008952FB7F8948091E4049091E504A0913A
:10236000E604B091E7042FBF08950E94A9119C01D3
:102370009091540480915504982B21F0309351048E
:10238000209350049091560480915704982B21F08B
:1023900030934F0420934E04E091DF04F091E00469
:1023A000309749F082E0809352040480F581E02D5B
:1023B00082E594E0099508951092DA0480911E0355
:1023C000E0E7F3E0882329F18091E80487FF21C04A
:1023D0008EE1DF011D928A95E9F790E080E00E948E
:1023E000D60790E080E00E94B1071092D9040E94C5
:1023F000620D86E0E2E5F4E0DF011D928A95E9F7DF
:1024000010924B0410924C0410924D040E94B5118E
:10241000089586E0DECFAAE2B0E0E1E1F2E10C94BB
:10242000603581E195E02091F100FC012193CF011D
:10243000F5E089319F07B9F780911205833009F4DF
:1024400070C0B8F4813009F447C0823009F4B1C0DB
:102450008091E80083FF7EC2809111059091120562
:102460009A3008F077C2E92FF0E0ED5BF94C0C945C
:10247000CA358A3009F48CC08B3009F46FC08930BA
:1024800039F780911105813219F7809115059091E6
:1024900016050297E8F68091E800877F8093E800B0
:1024A0008091E80082FF38C09091F3008091F200A3
:1024B000029731F48091F100813011F0863021F4DF
:1024C0008091F1008093EC048091E8008B778093F9
:1024D000E8000E942806BCCF80911105813A09F0DE
:1024E000B7CF8091E800877F8093E8008091150541
:1024F00090911605892B61F460E28DEE94E070E016
:102500000E94D4068091E8008B778093E800A0CFEA
:1025100060E090E080E0F3CF80910F058111C0CFA3
:1025200097CF80911105813A09F092CF80911505DE
:1025300090911605892B09F08BCF8091E800877F59
:102540008093E8008091E80080FFFCCF80911E031B
:102550008093F1008091E8008E77B9CF80911105CA
:10256000813209F075CF8091150590911605892B60
:1025700009F06ECF8091E800877F8093E8000E9489
:1025800028068091130580931E030E94DC1160CF02
:1025900080911105813209F05BCF8091E800877F3F
:1025A0008093E8000E942806809114058093EB0434
:1025B0004FCF80911105813A09F04ACF8091E80010
:1025C000877F8093E8008091E80080FFFCCF8091B6
:1025D000EB04BECF803899F0823809F0BBC18091FE
:1025E00015058F70873008F0B5C18093E9008091A0
:1025F000EB0085FB882780F91092E90006C08091E6
:102600000D0590910E05911182609091E800977FE1
:102610009093E8008093F1001092F1008091E8001F
:102620008E7794C1882309F482C1823009F092C167
:1026300080911305811185C1809115058F702FEF51
:10264000280F263008F086C18093E9002091EB0026
:1026500020FF77C1933031F48091EB00806280934A
:10266000EB006FC19091EB0090619093EB0021E043
:1026700030E001C0220F8A95EAF72093EA00109219
:10268000EA008091EB008860EACF811163C110916C
:1026900013051F778091E3008078812B8093E300FE
:1026A0008091E800877F8093E8000E94280680914F
:1026B000E80080FFFCCF8091E30080688093E30016
:1026C00082E0111183E080930F0544C1805882306D
:1026D00008F040C180911305909114058C3D23E0D2
:1026E0009207A1F583E08A838AE289834FB7F89441
:1026F000DE01139620E03EE051E2E32FF0E050933C
:102700005700E49120FF03C0E295EF703F5FEF7048
:102710008E2F90E0EA30C0F0C7968D939D932F5F87
:10272000243159F74FBF8091E800877F8093E800FC
:102730006AE270E0CE0101960E94D4068091E80022
:102740008B778093E80006C1C096E7CF40911505CE
:1027500050911605292F33272330310509F444C041
:1027600078F52130310509F46FC08BE390E0E5E5A1
:10277000F5E02230310509F0EDC02091E800277F17
:102780002093E800209117053091180582179307D0
:1027900008F49C0140E02115310509F064C04111A5
:1027A00062C08091E80082FDC9CF80910F05882327
:1027B00029F2853019F28091E80083FFF2CFBECF75
:1027C00021323105A9F12232310509F0C3C041158A
:1027D000510509F443C04130510509F0BBC086EBF7
:1027E00090E0EBE5F4E0C9CF992781309105C1F085
:1027F000009759F0029709F0ADC0E2EAF5E0E491E4
:102800008E2F90E0E2EAF5E007C0E2ECF5E0E4911B
:102810008E2F90E0E2ECF5E0009709F49BC0ADCF7D
:10282000E0EBF5E0E4918E2F90E0E0EBF5E0F4CF03
:102830004115510571F04130510509F08BC089E017
:1028400090E0E0E8F5E099CF82E190E0E0E9F5E0A2
:1028500094CF89E090E0E7E6F5E08FCF84E490E064
:10286000E1E1F5E08ACF80910F05882309F466CF76
:10287000853009F463CF8091E80083FD5FCF8091BC
:10288000E80082FD8ECF8091E80080FF84CF909198
:10289000F3008091F2002115310519F0883091057F
:1028A00050F041E0089709F040E08091E8008E7711
:1028B0008093E80070CF44914093F100319621500D
:1028C00031090196E8CF803809F044C08091E800D2
:1028D000877F8093E800809110058093F1009ECE61
:1028E000811138C0109113051230A0F58091E800D5
:1028F000877F8093E800109310050E94280611231B
:1029000011F084E005C08091E30087FDFACF81E0FB
:1029100080930F0542E061EC81E00E94470642E2AD
:1029200061EC82E00E94470680910F0513C0809100
:102930001305813079F481E0933009F080E08093D1
:102940000E051092E9008091E800877F8093E800EF
:102950000E9428068091E80083FF0AC08091E80069
:10296000877F8093E8008091EB0080628093EB008A
:10297000AA96E3E00C947C351F920F920FB60F924B
:1029800011242F933F934F935F936F937F938F9374
:102990009F93AF93BF93CF93DF93EF93FF93D09128
:1029A000E900DF708091EC00C82FC17080FDC0E8A5
:1029B0001092E9008091F000877F8093F000789476
:1029C0000E940B121092E9008091F00088608093C1
:1029D000F000CD2BCF70C093E900FF91EF91DF9114
:1029E000CF91BF91AF919F918F917F916F915F91A7
:1029F0004F913F912F910F900FBE0F901F90189500
:102A00000E94DC112FEF84E39CE021508040904035
:102A1000E1F700C0000088E19AE00FB6F894A895AD
:102A2000809360000FBE90936000FFCF662309F48F
:102A30005DC08D3C41F40E946308819580935504EC
:102A40000E94B51108958E3C19F40E946308F6CFD8
:102A50008F3C31F40E946308819580935404F0CF39
:102A6000803D19F40E946308F8CF893D29F40E9443
:102A7000410880935604E4CF8A3D21F40E94410826
:102A80008195F7CF8B3D31F40E9441088195809369
:102A90005704D6CF8C3D19F40E944108F8CF9FE22D
:102AA000980F983070F4815D990B21E030E001C0FF
:102AB000220F8A95EAF780915304822B8093530466
:102AC000BFCF8D3D31F480914D04816080934D04E2
:102AD000B7CF8E3D21F480914D048260F7CF8F3DBA
:102AE00009F0AECF80914D048460F0CF4091540442
:102AF0008D3C59F48091550487FF0DC01092550408
:102B000041110BC010924B0408C08E3C81F480919F
:102B1000550418169CF3442381F08091560490913B
:102B20005704892B09F08CCF10924C0489CF8F3C2D
:102B300049F447FFF0CF109254048091550481115D
:102B4000ECCFE0CF803D19F41416ACF3E4CF9091B4
:102B50005604893D29F41916F4F610925604DBCF79
:102B60008A3D19F497FFD7CFF8CF909157048B3D4A
:102B700029F497FFD0CF10925704CDCF8C3D19F494
:102B80001916CCF3C8CF9FE2980F983090F4815D6E
:102B9000990B21E030E0B90102C0660F771F8A95DA
:102BA000E2F7CB01809590915304892380935304DD
:102BB000B2CF8D3D31F480914D048E7F80934D04D2
:102BC000AACF8E3D21F480914D048D7FF7CF8F3DAC
:102BD00009F0A1CF80914D048B7FF0CF882399F12C
:102BE0009CEF980F913A40F4682F8EE693E00E9494
:102BF00052070E94620D089590E2980F983050F4A9
:102C0000877091E001C0990F8A95EAF7892F0E9499
:102C1000DF0AEFCF9BE5980F933028F490E080E037
:102C20000E94D607089598E5980F9B3128F490E00C
:102C300080E00E94B107089593E3980F933118F450
:102C400060E00E9416150895CF93DF93EC010E9477
:102C5000EE15CE010E946B0C9E01205E31092830DA
:102C6000310510F0CD2B29F40E940B0EDF91CF918E
:102C700008950E94FA0DFACFFC018281813031F46F
:102C8000FB01808191810E94241608958230E9F72A
:102C9000FB0182819381F7CFCF93C82F8823D9F18D
:102CA0008CEF8C0F813AC8F580911E03882311F1B7
:102CB0008091E80487FF1EC0EC2FE695E695E69527
:102CC000F0E0E259FC4F828190E04C2F477021E008
:102CD00030E002C0220F331F4A95E2F7822393238C
:102CE000892B91F06C2F8EE693E00E9452070E9490
:102CF000620D0AC0E0E7F3E086E793E02191C21796
:102D000089F38E179F07D1F76C2F8EE693E00E9410
:102D10007C070E94620DCF91089580E28C0F88306D
:102D200068F4C77021E030E001C0220FCA95EAF7CD
:102D30008091DA04822B8093DA04EBCFEBE5EC0F81
:102D4000E33040F4F0E0E15EFC4F808190E00E94CF
:102D5000D607E1CFE8E5EC0FEB3150F4F0E0EE0FF1
:102D6000FF1FEE5DFC4F808191810E94B107D3CFA0
:102D700083E38C0F833178F661E08C2F0E94161567
:102D8000CACF1F93CF93DF93182FD0E0C0E08933D1
:102D900011F4C0E5D0E0812F0E944C16209739F441
:102DA000812F0E94EE15DF91CF911F9108958FE939
:102DB0009FE00197F1F700C000002197EFCF0F933C
:102DC0001F93CF93DF93C42FD22FFC0185818823DB
:102DD000A9F04093D8040E94A9119093D70480933E
:102DE000D604C77081E001C0880FCA95EAF70E9437
:102DF000160EDF91CF911F910F9108951091D80475
:102E0000141332C08091D6049091D7040E949A1175
:102E10008C32914048F5C0E2CD0F1D17B9F080E229
:102E2000810F883040F4177081E001C0880F1A9537
:102E3000EAF70E940B0EC83048F481E09D2F97708E
:102E400001C0880F9A95EAF70E94160E802F0E9403
:102E5000C116C83070F6D77081E001C0880FDA95CE
:102E6000EAF70E940B0EC5CFC77081E001C0880F42
:102E7000CA95EAF7F6CFFC01858180FF04C082E0A5
:102E80000E94160E089581E00E949F0B80E90E9427
:102E9000C1160895CF93DF93EC010E946B0C9E0145
:102EA000205E31092830310510F0209741F40E944E
:102EB000160E8C2F0E944C16DF91CF9108950E9420
:102EC000010EF7CFFB01808191810E944A1708957E
:102ED000CF93DF93EC018A81823041F4FB01828140
:102EE00093810E944A178D8182608D83DF91CF91FB
:102EF0000895ACE0B0E0EFE7F7E10C9456358E01B1
:102F00000F5F1F4F88E0D8011D928A95E9F78AE587
:102F1000C82E83E0D82EF12CE12CAA24A394B12C46
:102F200024E6822E23E0922EF60181916F018F3FDD
:102F300009F442C0F894E82FE295EF70F0E021A187
:102F40008F70A50102C0440F551F8A95E2F7CA0190
:102F5000922F982B91A392A18095892382A3789494
:102F600000C0EEE5F3E0712C31E021912F3F09F430
:102F70006BC0A22FA295AF70B0E090968C9190E0BC
:102F80002F7002C0959587952A95E2F780FD5CC069
:102F9000832F782A330F8E169F0639F7F601319763
:102FA00080818F3F11F00E94930850EA5A95F1F703
:102FB000F801EE0DFF1D70828FEFE81AF80AA4E009
:102FC000EA16F10409F0B0CF48E050E0B8018AEF0A
:102FD00093E00E94D935009741F028E0F801AAEF6C
:102FE000B3E001900D922A95E1F700910304892B3B
:102FF00069F181E08093D7030E94A9119093D603D1
:103000008093D5038091D5039091D6030E949A11A5
:10301000059700F110E00A5F1B4F44E050E06AEFB3
:1030200073E0C8010E94D935B12C892B51F084E09E
:10303000EAEFF3E0D80101900D928A95E1F7BB2405
:10304000B3941092D70307C080E0A3CF8091D70339
:103050008111D8CFB12C0E94CC0EF82EE091030440
:10306000882309F472C019861A861B861C860E2FC7
:1030700010E00A5F1B4F8091F5038A3088F544EF1A
:103080005FE0BE01675F7F4FC8010E94990E8823F1
:1030900009F44AC04EE95FE0BE01675F7F4FC80197
:1030A0000E94990E882309F43FC01092F503809185
:1030B000020490E044E050E0BE01675F7F4F8A5F0A
:1030C0009B4F0E94D93521E02093DE03892BF1F438
:1030D000F12C1F2D812F8B292C96EDE00C9472354D
:1030E0008091D8039091D9030E949A11843F914016
:1030F00030F68091DE03882359F3FE01399684E08F
:10310000DF011D928A95E9F71092DE03E091020437
:10311000F0E0EA5FFB4F89859A85AB85BC858083AB
:103120009183A283B383D5CF8091F5038F3F31F094
:103130008F5F8093F5038A3008F4B9CF0E94A911FC
:103140009093D9038093D803D4CFF0E0EA5FFB4F8C
:1031500084E0A9EEB3E001900D928A95E1F789EE43
:1031600093E00E94C1058093E803C090ED03D090E6
:10317000EE03E090EF03F090F0038091DA0390917A
:10318000DB03A091DC03B091DD03C816D906EA0683
:10319000FB0611F410E09ECFC092DA03D092DB035D
:1031A000E092DC03F092DD030E94CC0E182F811117
:1031B000F1CF0E944607C61AD70AE80AF90AC09258
:1031C000F603D092F703E092F803F092F90382CF6E
:1031D000B0E0A0E0EEEEF8E10C945A357C01FC0181
:1031E0008481882309F4EAC061E0C7010E943B0C96
:1031F000EC01F7018581882319F18091DB0490911E
:10320000DC040097E9F0C817D907D1F0992724E02A
:10321000880F991F2A95E1F7FC01EE5CFE4F208193
:1032200024602083835D9E4FFC01D183C0830E9474
:10323000D00D1092D90461E0C7010E943B0CEC0153
:10324000F7018581882309F472C091819093250448
:1032500090819093240490E290937F01D093230473
:10326000C09322049E0130522115304238F4F701F8
:103270009681907F09F479C0FE010BC09E01305405
:103280002115304108F044C0F7019681907FFE017E
:1032900009F0FF27ED33F10510F00C941825E85FD5
:1032A000FD4FE491E0937F01C8363EE7D30709F470
:1032B0005AC310F00C947323C135EEE7DE0709F40E
:1032C000B5C210F00C94A622C6342EE7D20709F43A
:1032D0005DC210F00C944E22C0349EE7D90709F469
:1032E00094C210F00C941D22CE36D10509F429C2E7
:1032F00010F00C941122CD36D105B9F581E90E9468
:10330000C11681E00E949F0B82E00E949F0B47C084
:103310009E013A9521153F4108F4AECF9E01205AF7
:1033200032452032310508F4BFCFFE01B3CFC83695
:103330002EE7D207A1F108F004C1C1359EE7D907F5
:1033400071F108F086C0C634FEE7DF0741F108F0EE
:1033500051C0C0343EE7D30711F1A8F5CE36D105F0
:10336000F1F0A8F4CD36D105D1F09E0137552F3FAD
:10337000310509F008F437C4FE01E851FC47E73095
:10338000F10508F067C4E35BF94C0C94CA35C1360B
:10339000E2E5DE0721F0C236F2E5DF0731F7809182
:1033A000B103877059F0F7018581882339F0809146
:1033B000E90482FF03C082E00E94C10BCDB7DEB7F3
:1033C000E9E00C947635C3342EE7D20741F348F494
:1033D000C1349EE7D90719F3C234EEE7DE07F9F2EC
:1033E000C4CFC434FEE7DF07D1F2C5342EE7D207DD
:1033F000B1F2BBCFCB343EE7D30789F270F4C834C7
:10340000EEE7DE0761F258F2C9342EE7D20739F24F
:10341000CA343EE7D30719F2A8CFCE349EE7D907C6
:1034200009F4BDCF58F4CC34FEE7DF0709F4B7CF79
:10343000CD342EE7D20709F4B2CF97CFCF343EE791
:10344000D30709F4ACCFC0359EE7D90709F4A7CF5D
:103450008CCFCC35EEE7DE0709F4A1CFA0F5C63559
:103460002EE7D20709F49BCF90F4C3359EE7D90726
:1034700009F495CF08F493CFC435FEE7DF0709F4CC
:103480008ECFC5352EE7D20709F489CF6ECFC93567
:103490003EE7D30709F483CF58F4C735EEE7DE07DC
:1034A00009F47DCFC835FEE7DF0709F478CF5DCF9B
:1034B000CA352EE7D20709F472CFCB353EE7D307E2
:1034C00009F46DCF52CFC2369EE7D90709F467CF12
:1034D000E0F4CF35FEE7DF0709F461CF58F4CD35CE
:1034E0003EE7D30709F45BCFCE359EE7D90709F451
:1034F00056CF3BCFC036EEE7DE0709F450CFC136DA
:10350000FEE7DF0709F44BCF30CFC5362EE7D207F1
:1035100009F445CF58F4C3369EE7D90709F43FCFE5
:10352000C436EEE7DE0709F43ACF1FCFC636FEE712
:10353000DF0709F434CFC7362EE7D20709F42FCFBF
:1035400014CFC0383EE7D30709F429CF08F077C07D
:10355000C337EEE7DE0709F422CFA0F5CD362EE71C
:10356000D20709F41CCF90F4CA369EE7D90709F4B4
:1035700016CF08F414CFCB36FEE7DF0709F40FCFE0
:10358000CC362EE7D20709F40ACFEFCEC0373EE79C
:10359000D30709F404CF58F4CE36EEE7DE0709F47A
:1035A000FECECF36FEE7DF0709F4F9CEDECEC13717
:1035B0002EE7D20709F4F3CEC2373EE7D30709F46A
:1035C000EECED3CECA379EE7D90709F4E8CEE0F4B1
:1035D000C637FEE7DF0709F4E2CE58F4C4373EE70A
:1035E000D30709F4DCCEC5379EE7D90709F4D7CE57
:1035F000BCCEC737EEE7DE0709F4D1CEC937FEE708
:10360000DF0709F4CCCEB1CECD372EE7D20709F4CF
:10361000C6CE58F4CB379EE7D90709F4C0CECC37D5
:10362000EEE7DE0709F4BBCEA0CECE37DC0709F407
:10363000B6CECF372EE7D20709F4B1CE96CECB382F
:103640003EE7D30709F4ABCEA0F5C538EEE7DE07B9
:1036500009F4A5CE90F4C2382EE7D20709F49FCE24
:1036600008F49DCEC3389EE7D90709F498CEC43834
:10367000EEE7DE0709F493CE78CEC838FEE7DF0721
:1036800009F48DCE58F4C6383EE7D30709F487CE47
:10369000C7389EE7D90709F482CE67CEC938EEE76E
:1036A000DE0709F47CCECA38FEE7DF0709F477CEDF
:1036B0005CCEC1392EE7D20709F471CEE0F4CE38E2
:1036C0009EE7D90709F46BCE58F4CC38FEE7DF0744
:1036D00009F465CECD382EE7D20709F460CE45CE89
:1036E000CF383EE7D30709F45ACEC0399EE7D90751
:1036F00009F455CE3ACEC439EEE7DE0709F44FCED1
:1037000058F4C2392EE7D20709F449CEC3393EE74F
:10371000D30709F444CE29CEC5399EE7D90709F469
:103720003ECEC639EEE7DE0709F439CE1ECE80E97B
:103730000E94C11682E00E949F0B81E00E949F0BB5
:103740002ECE81E90E94C11681E00E949F0B27CEF8
:10375000882309F424CE8EE00E94C11684E00E94E2
:10376000C1161DCE882309F41ACE8EE00E94C11620
:1037700082E10E94C11613CE882309F410CE86E19F
:103780000E94C11684E00E94C11609CE882309F464
:1037900006CE86E10E94C1168BE00E94C1168CE025
:1037A0000E94C116FCCD882309F4F9CD87E10E945F
:1037B000C11688E00E94C116F2CD882309F4EFCD2E
:1037C0008EE00E94C11688E00E94C116E8CD8823D1
:1037D00009F4E5CD86E10E94C11688E00E94C11679
:1037E000DECD882309F4DBCD86E10E94C11688E195
:1037F0000E94C116D4CD882309F4D1CD8BE00E945C
:10380000C11688E10E94C116CACD882309F4C7CD2C
:1038100087E30E94C116C3CD882309F4C0CD8AE096
:103820000E94C11684E00E94C116B9CD882309F414
:10383000B6CD8AE00E94C11682E10E94C116AFCDCA
:10384000882309F4ACCD8DE10E94C11684E00E946A
:10385000C116A5CD882309F4A2CD89E10E94C11625
:1038600088E10E94C1169BCD882309F498CD8DE193
:103870000E94C1168CE00E94C11691CD882309F4E4
:103880008ECD8AE00E94C11688E00E94C11687CDC5
:10389000882309F484CD8DE10E94C11688E00E943E
:1038A000C1167DCD882309F47ACD8DE10E94C11621
:1038B00088E10E94C11673CD882309F470CD85E09C
:1038C0000E94C11688E10E94C11669CD882309F4BF
:1038D00066CD8FE00E94C11684E00E94C1165FCDC4
:1038E000882309F45CCD88E00E94C11658CD882356
:1038F00009F455CD8FE00E94C1168CE10E94C116DB
:1039000084E00E94C1164BCD882309F448CD85E19F
:103910000E94C11688E00E94C11641CD882309F497
:103920003ECD84E00E94C1163ACD882309F437CDFC
:1039300081E10E94C11684E00E94C11630CD882327
:1039400009F42DCD80E10E94C11682E10E94C116CA
:1039500026CD882309F423CD8FE00E94C11688E18B
:103960000E94C1161CCD882309F419CD85E10E945F
:10397000C11682E10E94C11612CD882309F40FCD31
:103980008CE10E94C11684E00E94C11608CD8823F4
:1039900009F405CD8FE00E94C1168CE00E94C1168B
:1039A000FECC882309F4FBCC83E10E94C11684E09D
:1039B0000E94C116F4CC882309F4F1CC87E00E9460
:1039C000C1168CE00E94C116EACC882309F4E7CC2A
:1039D00087E00E94C11688E10E94C116E0CC8823CE
:1039E00009F4DDCC83E10E94C1168CE00E94C1166F
:1039F000D6CC882309F4D3CC87E00E94C11682E19B
:103A00000E94C116CCCC882309F4C9CC8AE00E945C
:103A1000C1168CE00E94C116C2CC882309F4BFCC29
:103A200083E10E94C11682E10E94C116B8CC8823AE
:103A300009F4B5CC83E10E94C11688E10E94C11649
:103A4000AECC882309F4ABCC83E10E94C11688E098
:103A50000E94C116A4CC882309F4A1CC85E00E9461
:103A6000C11682E10E94C1169ACC882309F497CC32
:103A70008CE10E94C11682E10E94C11690CC88237D
:103A800009F48DCC81E10E94C1168CE00E94C11620
:103A900086CC882309F483CC80E10E94C11684E09F
:103AA0000E94C1167CCC882309F479CC8FE00E9457
:103AB000C11688E00E94C11672CC882309F46FCC2D
:103AC00082E10E94C1166BCC882309F468CC81E1A5
:103AD0000E94C11682E10E94C11661CC882309F4BC
:103AE0005ECC8FE00E94C11687E10E94C11688E17A
:103AF0000E94C11654CC882309F451CC81E10E9464
:103B0000C11688E10E94C1164ACC882309F447CC2B
:103B100080E10E94C11688E10E94C11640CC882332
:103B200009F43DCC8AE10E94C11684E00E94C116CE
:103B300036CC882309F433CC85E10E94C11684E099
:103B40000E94C1162CCC882309F429CC8EE00E9457
:103B5000C11688E10E94C11622CC882309F41FCC2B
:103B600087E10E94C11688E10E94C11618CC882303
:103B700009F415CC87E10E94C11682E10E94C116AA
:103B80000ECC882309F40BCC8EE00E94C1168CE089
:103B90000E94C11604CC882309F401CC81E10E9463
:103BA000C11681E10E94C116FACB882309F4F7CB34
:103BB00080E10E94C11688E00E94C116F0CB8823E4
:103BC00009F4EDCB81E10E94C11688E00E94C11684
:103BD000E6CB882309F4E3CB8BE00E94C11682E197
:103BE0000E94C116DCCBFE01FF2794E0EE0FFF1F01
:103BF0009A95E1F78F01035D1E4FEE5CFE4F9081B9
:103C000080FB90F99083882309F446C00E94A91193
:103C10009093180480931704F80182818F5F828348
:103C20008091D9049091DA04892B83838091D20307
:103C300084834681578166857785C8010E94FB078A
:103C4000F801858181FF25C090E080E09093DB043E
:103C50008093DC04F7018581882309F4D4C3109292
:103C6000D804CE019057839708F0B5C384E090E064
:103C70000E94F7359093E9048093E804FE01E15037
:103C8000F047E232F10508F061C0EC5AF94C0C94AF
:103C9000CA359C2F8D2FDACFF8014485558566856E
:103CA0007785C8010E94FB07F801858181FFD2CF8B
:103CB000C8010E94B70D8091DB049091DC04C81705
:103CC000D90741F61092DC041092DB04C3CF06E260
:103CD00021EE41EE6AE17CE7C7010E94DF165FCB6F
:103CE00007E225EE45EE6BE17CE7C7010E94DF1697
:103CF00056CB06E221EE40EE68E17CE7C7010E9468
:103D0000DF164DCB07E225EE44EE69E17CE7C70103
:103D10000E94DF1644CB06E221EE42EE6CE17CE726
:103D2000C7010E94DF163BCB07E225EE46EE6DE1B0
:103D30007CE7C7010E94DF1632CB08E221E045EEA6
:103D40006EE17CE7C7010E94DF1629CB8091E80471
:103D500081608093E80495C08091E9048860809335
:103D6000E9048FC08091E8048260F3CF8091E80479
:103D70008460EFCF8091E8048860EBCF8091E90404
:103D80008160EDCF8091E9048260E9CF8091E80401
:103D90008061DFCF8091E8048062DBCF8091E8040E
:103DA0008064D7CF0E94DC118091E8048068D1CF75
:103DB0008091E8048C60CDCF8091E9048360CFCFFF
:103DC0008091E8048E7FC5CF8091E904877FC7CFBB
:103DD0008091E8048D7FBDCF8091E8048B7FB9CFBF
:103DE0008091E804877FB5CF8091E9048E7FB7CFBB
:103DF0008091E9048D7FB3CF8091E8048F7EA9CFB5
:103E00008091E8048F7DA5CF8091E8048F7BA1CFBE
:103E10000E94DC118091E8048F779BCF8091E804A9
:103E2000837F97CF8091E9048C7F99CF8091E804BC
:103E300082FB992790F921E0922790FB82F990FB71
:103E400083F987CF8091E904982F909591708E7FA8
:103E5000892B90FB81F983CF9091E804892F8F7B88
:103E600096FF806476CF0E94DC119091E804892F40
:103E700097FB87F980586DCF61E08EE090E00E945B
:103E80000D366091E8047091E90484E090E00E94AE
:103E90002B360E94DC1183CA60E0EFCF9091E804DA
:103EA000892F8F7E94FF806154CF9091E804892FF1
:103EB0008E7F90FF81604DCF9091E904892F877F9D
:103EC00093FF88604CCFC330FCE7DF0709F466C07E
:103ED00008F049C0C1153CE7D30709F452C0C1300E
:103EE000DC4709F461C0F70187819085009709F4E8
:103EF00069C00E94BA09D82FC92FF701B580068181
:103F000002950F708091B1038770F1F0DB2CBB201C
:103F1000E1F0892F807F803451F080E28D0F88306E
:103F200098F0011104C0892F807E803269F0809161
:103F3000E90482FF09C082E00E94C10B8091B103B5
:103F40008770DD24D3948111D12CCC2EC2948FE0C4
:103F5000C822FBE0FC1508F4A5C0EC2DF0E0EA58FF
:103F6000F94C0C94CA35CB359CE7D90749F1CC35CF
:103F7000ECE7DE07D9F0CA35DC4709F0B4CF81E0C1
:103F80001CC00E94DC112FEF34E38CE02150304044
:103F90008040E1F700C000000E9435076FEF7FEF1F
:103FA00090E080E00E942B360E9400158091E90489
:103FB00082FB882780F991E089270E94870F93CFA1
:103FC00080E0FBCF8581C081D181882369F0CE015B
:103FD0000E94F00A182F682FCE010E94640BBE01C8
:103FE000812F0E949B0985CFCE010E94310B182F93
:103FF000F6CF1C2F1F70C07F11F01295107FBB20D1
:10400000B9F0112369F080E28D0F883010F0D111E2
:1040100009C08091DA04182B1093DA040E94620D13
:104020008D2F3EC08091D904182B1093D904F6CF60
:104030008D2F0E94EE151123A9F180E28D0F88309B
:1040400010F0D11104C0812F0E94DF0A03C0812F1C
:104050000E94D80A0E94620D25C01C2F1F70C07FCD
:10406000C03211F01295107FDD2351F0D13009F4E8
:1040700070C0BB2009F47AC0002309F440C0D0CF3F
:104080008091E90482FD37C0BB2079F1112339F01A
:104090008091DA04182B1093DA040E94620D80E0FC
:1040A0000E944C16EC2DE850FF0B349710F40E9440
:1040B000EF0EDD20A9F08091B10380FD11C0F70162
:1040C00015828695869586950E94D80BC7010E9419
:1040D000E8188091B1038695869586950E94AF0B6E
:1040E00060E0C7010E943B0C69C980E00E94EE15A8
:1040F0001123C1F2A8CFBB2091F0011104C0812F80
:104100000E94160ECFCF013069F68091D203912F15
:104110009823191739F2182B1093D203C3CF01112A
:10412000C1CF812F0E940B0E9091D203812F892342
:1041300029F0812F809589238093D20380918F036A
:10414000912F982309F4AECF1095182310938F0365
:10415000A9CFBB2021F0063008F0A4CFD0CF053086
:1041600008F0A0CF812F0E940B0E9CCF0023D1F32B
:10417000D93349F42FEF37EE83E0215030408040AF
:10418000E1F700C000008D2F0E94EE158BCF8C2F21
:1041900086958695837069F0813009F083CF8D2FE5
:1041A0009C2F9370B11002C080E090E00E94B10794
:1041B00079CF8D2F9C2F9370B11002C080E090E0DA
:1041C0000E94D6076FCF6B2D8D2F0E9416156ACFD8
:1041D0008C2F837009F03FC0B11064CF4D2F4295F2
:1041E00046954770440F440F2D2F2F7030E0042E5A
:1041F00002C0220F331F0A94E2F790E080E0D4FF60
:1042000009C08FE090E002C0880F991F4A95E2F73D
:1042100080959095C695C695C370C23099F078F494
:104220004091040450910504C13039F0822B932B46
:10423000842395230E94E80B35CF242B352B822B2A
:10424000932BF8CF822B932B2091040430910504FB
:1042500082279327EFCF8695BB2011F08C2F81709A
:10426000882309F41FCF4D2F429546954770440F80
:10427000440F2D2F2F7030E0042E02C0220F331F69
:104280000A94E2F790E080E0D4FF09C08FE090E06C
:1042900002C0880F991F4A95E2F780959095C695C0
:1042A000C695C370C23099F078F4409119045091CA
:1042B0001A04C13039F0822B932B842395230E945A
:1042C0009A0BF0CE242B352B822B932BF8CF822BFD
:1042D000932B2091190430911A0482279327EFCF52
:1042E000CF70BB2029F08C2F0E94D80B8D2F08CFC8
:1042F0008D2F0E940B0E8C2F0E94AF0BD3CED23F7E
:1043000041F160F4D03FB9F0D13F81F0BB2009F416
:1043100052C0011185CE8C2F8F711FC0D33F01F188
:10432000D43FA1F78091E90482FD28C08C2F8F71C2
:10433000BB2011F312C0BB2041F0053008F0B2CE13
:104340008C2F8F710E949F0BADCE063008F0AACE45
:10435000F7CF8C2F8F71B110CFCF0E94D80BA2CE88
:1043600090E080E0BB2009F4AACFCF7181E090E01B
:1043700002C0880F991FCA95E2F7A1CFBB2089F030
:10438000CF718C2F0E94D80B8091E90482FF07C067
:10439000E8E0CE9FC001112483608093B1038C2F8D
:1043A000DCCF81E00E94C10B023008F47BCE82E0BA
:1043B0000E94C10B77CE002359F0D93309F0E3CE28
:1043C000FFEF27EE33E0F15020403040E1F7D9CE47
:1043D0008C2F8F7191CFC631FCE7DF0709F073CDC9
:1043E0008091DA048A7A91E009F490E090938E0348
:1043F00069E2811165E38EE693E00E947C070E94EA
:10440000620D0C94CF19C631DC4709F06CCD809158
:104410008E0369E2811165E38EE693E00E94520704
:10442000EECFC136F2E5DF0709F481C9C23622E5D5
:10443000D20709F434C30C94B519C3343EE7D3074B
:1044400009F490C9B8F4C134EEE7DE0709F480C975
:10445000C234FEE7DF0711F00C94B519882311F47C
:104460000C94CF1987E10E94C11684E00E94C11606
:104470000C94CF19C4342EE7D20709F47DC9C53492
:104480003EE7D30711F00C94B519882311F40C946E
:10449000CF1988E10E94C1160C94CF19CB349EE746
:1044A000D90709F49EC9F0F4C834FEE7DF0709F420
:1044B00084C908F478C9C9343EE7D30709F487C929
:1044C000CA349EE7D90711F00C94B519882311F46A
:1044D0000C94CF198BE00E94C1168CE00E94C1168B
:1044E0000C94CF19CE34EEE7DE0709F4F3C0B8F42C
:1044F000CC342EE7D20709F47EC9CD343EE7D3078A
:1045000011F00C94B519882311F40C94CF198BE099
:104510000E94C11688E00E94C1160C94CF19CF34B6
:104520009EE7D90709F478C9C035EEE7DE0711F038
:104530000C94B519882311F40C94CF1987E00E94CC
:10454000C11684E00E94C1160C94CF19CC35FEE749
:10455000DF0709F4BBC908F058C0C6353EE7D307EA
:1045600009F48CC9F0F4C335EEE7DE0709F472C92B
:1045700008F466C9C4352EE7D20709F475C9C535F4
:104580003EE7D30711F00C94B519882311F40C946D
:10459000CF1987E00E94C11688E00E94C1160C94D2
:1045A000CF19C9359EE7D90709F47CC9B8F4C735D6
:1045B000FEE7DF0709F46CC9C8352EE7D20711F012
:1045C0000C94B519882311F40C94CF1985E00E943E
:1045D000C1168CE00E94C1160C94CF19CA353EE773
:1045E000D30709F469C9CB359EE7D90711F00C94BC
:1045F000B519882311F40C94CF1985E00E94C116D7
:1046000088E00E94C1160C94CF19C236EEE7DE078F
:1046100009F484C9A0F5CF352EE7D20709F467C99C
:10462000B8F4CD359EE7D90709F45AC9CE35EEE77F
:10463000DE0711F00C94B519882311F40C94CF19EE
:1046400085E10E94C1168CE00E94C1160C94CF191E
:10465000C036FEE7DF0709F457C9C1362EE7D20797
:1046600011F00C94B519882311F40C94CF198AE138
:104670000E94C11682E10E94C1160C94CF19C53662
:104680003EE7D30709F45BC9D0F4C336EEE7DE0793
:1046900009F44BC9C436FEE7DF0711F00C94B519D5
:1046A000882311F40C94CF198FE00E94C1168CE17D
:1046B0000E94C11688E10E94C1160C94CF19C6361B
:1046C0002EE7D20709F445C9C7363EE7D30711F0F4
:1046D0000C94B519882311F40C94CF1988E30E9427
:1046E000C1160C94CF19C0389EE7D90709F481C9C7
:1046F00008F0CBC0C337FEE7DF0709F44CCA08F067
:1047000055C0CD363EE7D30709F41DCAF0F4CA36CA
:10471000EEE7DE0709F43BC908F42FC9CB362EE7D4
:10472000D20709F406CACC363EE7D30711F00C9441
:10473000B519882311F40C94CF1987E10E94C11692
:104740008CE00E94C1160C94CF19C0379EE7D907A0
:1047500009F40DCAB8F4CE36FEE7DF0709F4FDC947
:10476000CF362EE7D20711F00C94B519882311F437
:104770000C94CF198BE00E94C11684E00E94C116F0
:104780000C94CF19C1373EE7D30709F4FAC9C237F1
:104790009EE7D90711F00C94B519882311F40C94F5
:1047A000CF198CE00E94C1160C94CF19CA37EEE7DE
:1047B000DE0709F4F6C8B0F5C6372EE7D20709F4CC
:1047C000FEC9B8F4C4379EE7D90709F4EEC9C53766
:1047D000EEE7DE0711F00C94B519882311F40C9460
:1047E000CF1986E10E94C11682E10E94C1160C9485
:1047F000CF19C737FEE7DF0709F4EBC9C9372EE742
:10480000D20711F00C94B519882311F40C94CF1928
:104810008FE192E00E944A178FE192E00E942416F5
:104820000C94CF19CD373EE7D30709F4CEC8B8F4BE
:10483000CB37EEE7DE0709F4BEC8CC37FEE7DF076B
:1048400011F00C94B519882311F40C94CF198AE057
:104850000E94C11688E10E94C1160C94CF19CE3770
:10486000DC0709F4BCC8CF373EE7D30711F00C943E
:10487000B519882311F40C94CF1985E00E94C11654
:1048800084E00E94C1160C94CF19CB389EE7D9075B
:1048900009F4FFC808F05BC0C538FEE7DF0709F47C
:1048A000D0C8F0F4C2383EE7D30709F4B6C808F41C
:1048B000AAC8C338EEE7DE0709F4B9C8C438FEE772
:1048C000DF0711F00C94B519882311F40C94CF195B
:1048D0008DE10E94C11682E10E94C1160C94CF198D
:1048E000C8382EE7D20709F4C0C8D0F4C6389EE70E
:1048F000D90709F4B0C8C738EEE7DE0711F00C9409
:10490000B519882311F40C94CF198FE00E94C116B9
:104910008AE10E94C11684E00E94C1160C94CF194E
:10492000C938FEE7DF0709F4AAC8CA382EE7D2075C
:1049300011F00C94B519882311F40C94CF1985E16A
:104940000E94C11688E10E94C1160C94CF19C1398A
:104950003EE7D30709F4C2C8B8F5CE38EEE7DE0764
:1049600009F4ABC8B8F4CC382EE7D20709F49BC8D9
:10497000CD383EE7D30711F00C94B519882311F414
:104980000C94CF1980E10E94C1168CE00E94C116E0
:104990000C94CF19CF389EE7D90709F495C8C039D0
:1049A000EEE7DE0711F00C94B519882311F40C948E
:1049B000CF198FE00E94C1168CE10E94C11682E1DE
:1049C0000E94C1160C94CF19C439FEE7DF0709F421
:1049D0009CC8B8F4C2393EE7D30709F48CC8C33980
:1049E0009EE7D90711F00C94B519882311F40C94A3
:1049F000CF198CE10E94C11688E10E94C1160C9467
:104A0000CF19C539EEE7DE0709F489C8C639FEE7D4
:104A1000DF0711F00C94B519882311F40C94CF1909
:104A20008FE00E94C11682E10E94C1160C94CF193A
:104A3000C8362EE7D20711F40C94B31C08F023C13A
:104A4000C1359EE7D90711F40C94161C08F08DC0EF
:104A5000C634FEE7DF0711F40C94C61B08F048C00B
:104A6000C0343EE7D30711F40C94051C00F5CE3694
:104A7000D10511F40C94A11B10F40C947B19C136D0
:104A8000E2E5DE0711F40C94971BC236F2E5DF076E
:104A900011F00C94B519882311F40C94CF1981E905
:104AA0000E94C11682E00E949F0B0C94CF19C33460
:104AB0002EE7D20711F40C94B21B68F4C1349EE7C0
:104AC000D90711F40C94A81BC234EEE7DE0709F4F1
:104AD000C9CC0C94B519C434FEE7DF0711F40C946B
:104AE000BC1BC5342EE7D20709F4CFCC0C94B51902
:104AF000CB343EE7D30711F40C94F11BB0F4C83467
:104B0000EEE7DE0711F40C94DD1B10F40C94D31BBC
:104B1000C9342EE7D20711F40C94E71BCA343EE7E0
:104B2000D30709F4D3CC0C94B519CE349EE7D9073A
:104B300009F4D0CD68F4CC34FEE7DF0711F40C940F
:104B4000FB1BCD342EE7D20709F4DDCC0C94B5194C
:104B5000CF343EE7D30711F40C940C1CC0359EE70C
:104B6000D90709F4E7CC0C94B519CC35EEE7DE078C
:104B700011F40C94661CF0F5C6352EE7D20711F43B
:104B80000C943E1CB0F4C3359EE7D90711F40C9485
:104B90002A1C10F40C94201CC435FEE7DF0711F426
:104BA0000C94341CC5352EE7D20709F4EECC0C94D6
:104BB000B519C9353EE7D30711F40C94521C68F4BB
:104BC000C735EEE7DE0711F40C94481CC835FEE744
:104BD000DF0709F4F7CC0C94B519CA352EE7D207D4
:104BE00011F40C945C1CCB353EE7D30709F401CDDE
:104BF0000C94B519C2369EE7D90711F40C948E1C9B
:104C000008F5CF35FEE7DF0711F40C94771C68F444
:104C1000CD353EE7D30711F40C94701CCE359EE7DA
:104C2000D90709F409CD0C94B519C036EEE7DE07B3
:104C300011F40C94841CC136FEE7DF0709F413CD90
:104C40000C94B519C5362EE7D20711F40C949F1CAD
:104C500068F4C3369EE7D90711F40C94951CC4364A
:104C6000EEE7DE0709F41CCD0C94B519C636FEE755
:104C7000DF0711F40C94A91CC7362EE7D20709F4FC
:104C800029CD0C94B519C0383EE7D30711F40C9424
:104C9000F91C08F08DC0C337EEE7DE0711F40C9461
:104CA000CB1DF0F5CD362EE7D20711F40C94A31DE1
:104CB000B0F4CA369EE7D90711F40C94C71C10F45F
:104CC0000C94BD1CCB36FEE7DF0711F40C94991D44
:104CD000CC362EE7D20709F42CCD0C94B519C03789
:104CE0003EE7D30711F40C94B71D68F4CE36EEE717
:104CF000DE0711F40C94AD1DCF36FEE7DF0709F493
:104D000035CD0C94B519C1372EE7D20711F40C94A8
:104D1000C11DC2373EE7D30709F43FCD0C94B51946
:104D2000CA379EE7D90711F40C94D11C08F5C63791
:104D3000FEE7DF0711F40C94DF1D68F4C4373EE78B
:104D4000D30711F40C94D51DC5379EE7D90709F494
:104D500044CD0C94B519C737EEE7DE0711F40C9477
:104D6000E91DC937FEE7DF0709F44ECD0C94B519EC
:104D7000CD372EE7D20711F40C94E51C68F4CB373D
:104D80009EE7D90711F40C94DB1CCC37EEE7DE0765
:104D900009F459CD0C94B519CE37DC0711F40C94F5
:104DA000EF1CCF372EE7D20709F463CD0C94B51969
:104DB000CB383EE7D30711F40C94491DF0F5C53804
:104DC000EEE7DE0711F40C94211DB0F4C2382EE793
:104DD000D20711F40C940D1D10F40C94031DC3386C
:104DE0009EE7D90711F40C94171DC438EEE7DE07CF
:104DF00009F46ACD0C94B519C838FEE7DF0711F441
:104E00000C94351D68F4C6383EE7D30711F40C94B2
:104E10002B1DC7389EE7D90709F473CD0C94B5193B
:104E2000C938EEE7DE0711F40C943F1DCA38FEE7DF
:104E3000DF0709F480CD0C94B519C1392EE7D207EC
:104E400011F40C946E1D08F5CE389EE7D90711F4C5
:104E50000C945D1D68F4CC38FEE7DF0711F40C9468
:104E6000531DCD382EE7D20709F488CD0C94B5191F
:104E7000CF383EE7D30711F40C94641DC0399EE788
:104E8000D90709F492CD0C94B519C439EEE7DE07C1
:104E900011F40C94851D68F4C2392EE7D20711F481
:104EA0000C947B1DC3393EE7D30709F49ECD0C94C7
:104EB000B519C5399EE7D90711F40C948F1DC63971
:104EC000EEE7DE0709F4A8CD0C94B519B0E0A0E038
:104ED000ECE6F7E20C945C358091AE03807F09F03C
:104EE00051C08091AD03882309F44CC0E091620564
:104EF00089E0D82E809119058E1709F443C00E2F32
:104F000010E0ED9DF0011124E65EFA4F84818823C4
:104F1000F1F1D09EE001D19ED00D1124FE01E65E9C
:104F2000FA4F91818091A903981331C090818091AB
:104F3000A80398132CC08581811129C0E280F380D9
:104F40008091AA039091AB03E81AF90A60E088EA1D
:104F500093E00E943B0C8CE2E81681E0F806B8F47E
:104F60008091AE038F7080618093AE03C05EDA4F94
:104F700088818F708061888388EA93E00E94E818B6
:104F80000E94E60ACDB7DEB7E7E00C947835F80169
:104F90003196E770AFCFA8E1B0E0E1EDF7E20C9415
:104FA00054358C0186E0F801DE01539601900D9294
:104FB0008A95E1F7F801F480E58088EA882E83E09D
:104FC000982E8091AC0381112AC0F11003C0FF24F8
:104FD000F3941CC0EE20F9F0C8010E94ED0BF82EEE
:104FE0008823C9F089E0F801A8EAB3E001900D92A6
:104FF0008A95E1F78091AC03813031F48091A80368
:105000009091A9030E94240B0E9466278F2D689619
:10501000EFE00C947035C8010E94E818D8CFC28028
:10502000D380B090AD038091AA039091AB03360179
:10503000681A790ABB2009F420C15080A18060E081
:1050400088EA93E00E943B0CFCE26F16F1E07F06D9
:1050500008F0BDC0FF2009F4BACF8091AE03382F0D
:10506000307F2091A903F8019181311161C0FE2C9C
:1050700029131DC02091A8039081291318C04091C5
:10508000AF035091B003278130854217530779F45D
:10509000E11047C08F7080618093AE0388EA93E08F
:1050A0000E94E8188091AE03F8018683AFCFE1102B
:1050B00038C06A2D852D0E94A2056A2D852D0E947B
:1050C000A205E82E8111A2CF5B8AAC8A8B899C89CC
:1050D0000E94240B292F22952F70243058F49F70A2
:1050E000223088F0992399F0F8019681907F79F425
:1050F000FE2C8CCF2A5F2F70223068F0C8010E94EE
:10510000E818EB2CF5CF992311F0882389F3805E02
:10511000883070F3F3CF803F58F3815F833070F7AE
:10512000E7CF8091AE0381608093AE03F12C6ECF08
:1051300029131EC02091A8039081291319C0409102
:10514000AF035091B003278130854217530781F494
:10515000E1100EC08683C8010E94E81889E0F801BA
:10516000A8EAB3E001900D928A95E1F7FB2C4ECFAF
:10517000C8010E94ED0B882309F44DCFEE2009F4FD
:105180004ACF8091AE038032B8F02091A8033091CD
:10519000A9033B872A87DD86CC869091AC039E8746
:1051A0001F86888B8091AF039091B0039A8B898B77
:1051B000CE010A960E94E81889E0F801A8EAB3E057
:1051C00001900D928A95E1F70E94662700CF8091A9
:1051D000AE03982F907F51F488EA93E00E94E8187C
:1051E00089E0F40111928A95E9F7A0CFFF2009F434
:1051F000EECE2091A903F801918129131AC02091C4
:10520000A8039081291315C04091AF035091B003BA
:10521000278130854217530761F4E1100AC0868365
:10522000C8010E94E81889E0F40111928A95E9F713
:105230009DCFC8010E94ED0B882309F4ECCEEE202F
:1052400009F4E9CE8091AE03803208F4B5CF209105
:10525000A8033091A9033A832983DC82CB82909101
:10526000AC039D831E828F838091AF039091B00326
:1052700099878887CE0101969DCF60E088EA93E008
:105280000E943B0CFCE26F16F1E07F0608F0A8CF0D
:10529000FF2009F49CCEFE2CEE2009F4BCCE9091A8
:1052A000A903F8018181981337C09091A8038081E8
:1052B000981332C02091AF033091B003878190855D
:1052C0002817390749F58091AA039091AB03C81AB2
:1052D000D90AFCE2CF16F1E0DF06A8F49091AE0304
:1052E00090FD11C0907F79F08091AE03F801868324
:1052F000903F31F0982F907F905F8F70892B86833D
:10530000C8010E94E81889E0F801A8EAB3E001901A
:105310000D928A95E1F77ACEC8010E94ED0B8111BA
:105320004BCF8091AE0381608093AE03C8010E9491
:10533000E8186CCEA2E1B0E0E0EAF9E20C945F3547
:105340000A871B872C873D874E875F87688B798B01
:105350008A8BCE010A960E94CB2781110CC089E06E
:10536000FE013A96DE01119601900D928A95E1F7C1
:105370008E8581110BC019E080916205909119050D
:10538000891331C06296E4E00C947B3520911905B5
:1053900030E0C9010196877099274091620548174E
:1053A000190699F099E0929FD001939FB00D1124B6
:1053B000A65EBA4FFE01319601900D929A95E1F7E3
:1053C000809319050E94E60AD6CF0E94DC11109244
:1053D00019051092620589E0E8EAF3E0DF011D9209
:1053E0008A95E9F7C8CF819FC0011124865E9A4F44
:1053F0000E94CB27882331F28091620590E00196CC
:105400008770992780936205B7CFEF92FF920F9331
:105410001F93CF93DF9380916104882361F0E09123
:1054200060048DE0F82E80916104E81748F0109236
:10543000610410926004CDB7DEB7E6E00C947935D4
:10544000EE24E394EE0EE0926004CE2FD0E0EF9DC8
:10545000F0011124EE59FB4F84818823E9F0878104
:105460009085892B21F481859285019659F40081DC
:1054700011812281338144815581668177818085C4
:105480000E949A29FC9EF001FD9EF00D1124EE5918
:10549000FB4F14821092D904EE2DC5CF1092D50483
:1054A0001092D40410921D038091D3048093D204EF
:1054B0000E942F080E94052A0895B0E0A0E0E3E6CC
:1054C000FAE20C945135C091D204E7E0FE2E01E0DF
:1054D00010E0FDE02F2EEE24E3948091D3048C1392
:1054E00009C00E94052A0E942F08CDB7DEB7E2E16D
:1054F0000C946D35D0E0FE01EE0FFF1FE653FB4F1D
:1055000080819181F89EF001F99EF00D1124E957F8
:10551000FE4F248121115AC030906104A2E6B4E00C
:1055200030E020E0412C5F01231508F04DC01B96B0
:105530006D907C901C97F501808091804FEF5FEF1C
:10554000512CC52CD12CF601EE0FFF1FE80DF91DD3
:10555000659174916616770609F4A601672B11F020
:105560005394EFCF4F3F5407B9F1B80102C0660F13
:10557000771F4A95E2F7462AA801052C02C0440F7E
:10558000551F0A94E2F7415051094416150609F5D2
:10559000229EF001239EF00D1124EE59FB4FF89E40
:1055A000D001F99EB00D1124A957BE4F12962D912E
:1055B0003C9113973087278374E0748310821182A3
:1055C000928781871596EC920E9401082196C370FC
:1055D00084CF14961C9214972F5F3F4F1D96A4CF33
:1055E000AEE1B0E0E6EFFAE20C9451354B8B5C8B08
:1055F0006D8B7E8B8F8B988F91111092D904188AA6
:10560000198A1A8A86E0FE017396DE011A960190C5
:105610000D928A95E1F78E85882389F061E0CE01AD
:105620000A960E943B0C6C018F8520E5C2162CE780
:10563000D20689F4882329F181E080931D030A852D
:105640001B852C853D854E855F85688979898A898A
:105650000E949A29C8C031E5C3163CE7D30629F455
:10566000882379F00E944E2AEACF42E5C4164CE71F
:10567000D40639F4882329F080911D038111F2CFDB
:10568000DBCFF7E8EF2EF1E0FF2E512CB12CA12C4F
:1056900088248394912CB7E04B2ECE0101969A8FEB
:1056A000898F33243394F7014081518166246A94B1
:1056B000762C60E0262F30E0F901EE0FFF1FE40F9B
:1056C000F51F85919491C816D90609F43901892BE3
:1056D00011F06F5FEFCF10E0FFEF6F167F0609F458
:1056E00043C0F701448110911D03812F411180E0D7
:1056F000182F1170F701258086819F85992309F461
:10570000F2C0112309F4EFC0211014C09401062C3B
:1057100001C0220F0A94EAF7822B868380915E04EF
:1057200090915F04C29730F422E330E030935F043D
:1057300020935E04C40102C0880F991F6A95E2F7A6
:105740000197F70126812817190671F48091D40476
:105750009091D504009709F44AC00E949A11C3970A
:1057600008F445C0F7013482512AFFEFAF1ABF0A8F
:1057700027E0E20EF11C3AE3A316B10409F093CF3F
:105780008F85882309F40EC1552009F40BC10E94AE
:10579000A9119093D5048093D4048091610488303A
:1057A00010F591E0980F9093610499E0FE013A960C
:1057B000DE01119601900D929A95E1F74DE0849FDC
:1057C000C00111248E599B4F29E0FE013196DC0166
:1057D00001900D922A95E1F72FEF3FEFFC01328700
:1057E0002187D486C3866E96E2E10C946D35809154
:1057F000D2046091D304982FF0E0E0E0861314C047
:105800009093D204EE16FF0609F4AECF90E0FC01AF
:10581000EE0FFF1FE653FB4FB182A082019683700B
:1058200099278093D304A0CF682E712CF301EE0F3B
:10583000FF1FE653FB4F20813181429ED001439EE2
:10584000B00D1124A957BE4F2D913C9111973E8F59
:105850002D8F00E070E0212CE22DF0E0EE0FFF1F15
:105860002D8D3E8DE20FF31F2591349121153105C9
:10587000E1F0F7010190F081E02DFC8FEB8F70E0FB
:1058800005C02417350709F4012F7F5FE72FF0E0EB
:10589000EE0FFF1F4B8D5C8DE40FF51F459154916A
:1058A0004115510571F72394D7CF0023C9F0F701B3
:1058B000721508F0FD013482EE16FF0621F4909374
:1058C000D204102F51CF981305C0AE17BF0711F4A3
:1058D0009F5F937093012F5F3F4F822F83708ECF16
:1058E000F0E0E0E0F7CF90E021101FC0940102C08B
:1058F000220F331F6A95E2F7215031092817390723
:1059000031F4442309F44CC0C5010E940108C401CC
:10591000062C01C0880F0A94EAF7982F9095F7019A
:10592000868189238683122D1FCFAC01062C02C0ED
:10593000559547950A94E2F7BA01617077279C0163
:105940002150310982239323892B31F5672B21F1D3
:10595000F70182819381892BE1F0E98DFA8D242D65
:1059600011922A95E9F70E94A911282F8B839C8315
:1059700034E03D83F70182819381782F888799876E
:1059800009811A813C8144E05E816F81892F0E94E8
:105990009A29F7011582BBCFF42FF1702F2EB7CFC4
:1059A000212EB5CF9091D2048091D304981729F07D
:1059B0000E945D2A511017CF42CE0E94052A1092F4
:1059C000D5041092D4040E942F08F4CFA6E0B0E0D2
:1059D000ECEEFCE20C945F350E94A9118C018091E1
:1059E000D3039091D4038017910781F019821A8212
:1059F0000E94A911682F49815A81792F80E090E097
:105A00000E94F02A1093D4030093D3032696E4E077
:105A10000C947B351F921FB61F9211248F939F9376
:105A2000AF93BF938091E304811113C08091E4048C
:105A30009091E504A091E604B091E7044196A11D80
:105A4000B11D8093E4049093E504A093E604B09321
:105A5000E704BF91AF919F918F911F901FBE1F9040
:105A60001895CDB7DEB763970FB6F894DEBF0FBEBB
:105A7000CDBF85B7806885BF85B7806885BF84B78F
:105A8000877F84BF0FB6F894A895809160008861E5
:105A900080936000109260000FBE80E890E00FB627
:105AA000F89480936100909361000FBE81E998E0C3
:105AB00090936D0380936C030E94D8050E94790631
:105AC0008091E20084608093E200789480910F05D9
:105AD0008823A1F01091E9001F709091EC00892FAC
